:020000040800F2
:10000000882B0020F91E0008AD100008AF10000872
:10001000B3100008B7100008BB1000080000000073
:10002000000000000000000000000000BF100008F9
:10003000C1100008000000006F560008911C000865
:10004000131F0008131F0008131F0008131F0008C8
:10005000131F0008131F0008131F0008131F0008B8
:10006000131F0008131F0008131F0008131F0008A8
:10007000131F0008131F0008131F0008131F000898
:10008000131F0008131F0008131F0008131F000888
:10009000131F0008131F0008131F0008131F000878
:1000A000131F0008131F0008131F0008131F000868
:1000B000131F0008131F0008131F0008131F000858
:1000C000131F0008131F0008131F0008131F000848
:1000D000131F0008651E0008131F0008131F0008E7
:1000E000131F0008131F0008131F0008131F000828
:1000F000131F0008131F0008131F0008131F000818
:10010000131F0008131F0008131F0008131F000807
:10011000131F0008131F0008131F0008131F0008F7
:10012000131F0008131F0008131F0008131F0008E7
:1001300000F002F800F04AF80AA090E8000C8244AF
:100140008344AAF10107DA4501D100F03FF8AFF28C
:10015000090EBAE80F0013F0010F18BFFB1A43F0A5
:1001600001031847F472000014730000103A24BF12
:1001700078C878C1FAD8520724BF30C830C144BF0C
:1001800004680C607047000000230024002500264E
:10019000103A28BF78C1FBD8520728BF30C148BFEA
:1001A0000B607047662907F05B80642905F0C88200
:1001B000002070471FB505F017FE04000020002145
:1001C00006F06EFBE0601FBD10B510BD05F024FF0A
:1001D0001146FFF7EFFF00F0F5FD05F042FF03B415
:1001E000FFF7F2FF03BC01F0DDFD00002DE9F04157
:1001F0000446FD48008806F0B9FD05460022FB4B89
:1002000006F018FC07464FF06632F94B06F0FEFD8B
:10021000F84A03C20022F84BF64903C906F0BAFDBA
:1002200008D2F4480CC80020F34906F02FFFF34A27
:1002300003C20EE00022F04BEE4903C906F0E4FED3
:1002400007D80022EC4BEB4903C906F01FFFEB4A2D
:1002500003C24FF06632EA4BE64903C906F09AFD45
:100260004DD2E8480088B0F5FA6F04DD4FF4FA602B
:10027000E449088039E00022E34BE04903C906F075
:10028000C3FE05D2DF4800880A30DE4908802CE032
:10029000DE4ADF4BD94903C906F0B6FE05D2D9487C
:1002A00000880830D74908801FE04FF03332D94B1F
:1002B000D24903C906F0A8FE05D2D2480088001D25
:1002C000D049088011E0D14AD34BCC4903C906F08C
:1002D0009BFE05D2CB480088801CCA49088004E0F8
:1002E000C8480088401CC749088005F099F90446B1
:1002F000C448008801F0BDFB204605F095F9BDE833
:10030000F081002405E02046FFF770FF052001F092
:100310001CFDF8E7FFB5034603EB011004683EE05F
:1003200000E0521E914204DA03EB02100068A04282
:10033000F7D203EB0117D7E90065D7E90207CDE94A
:100340000207CDE9006503EB011003EB021797E804
:100350006010FF6880E86010C76003EB02109DE842
:10036000E010A0E8E01000E0491C914204DA03EB41
:1003700001100068A042F7D903EB0117E1CF8DE827
:10038000E10003EB011003EB021C9CE8E010A0E885
:10039000E01003EB02109DE8E010A0E8E0109142AD
:1003A000BEDB084604B0F0BDF0B507460D46164664
:1003B000B5420FDA324629463846FFF7ABFF04460E
:1003C000621E29463846FFF7EFFF3246611C384669
:1003D000FFF7EAFFF0BD30B505460C46621E00216E
:1003E0002846FFF7E1FF30BD96B000274FF0020826
:1003F000002664E015AA00218848006804F004FA89
:1004000005469DF85400002856D100240BE001A8B1
:1004100000EB041005EB041292E80A10D26880E8A1
:100420000A10C260641C052CF1DB052101A8FFF74E
:10043000D2FF7B48007810B1012804D101E0464684
:1004400002E0002600E000BF00BF05F0E9F8074623
:10045000744800780A2804DA72480078401C714910
:1004600008707148007809280FD170486E490978E2
:1004700000EB011101A800EB061C9CE80D10A1E89F
:100480000D1000206849087013E067480178007873
:10049000401C654A1070654800EB011201A800EB92
:1004A000061CDCE90030DCE9021CC2E9021CC2E9DE
:1004B0000030384605F0B8F8322001F046FC99E7E4
:1004C00010B5029C016042608360C46010BDADF550
:1004D000876D0020CDF834048346401E54490860DF
:1004E0003DE105F09DF8CDF834041DA801F043F876
:1004F0008246DDF8340405F097F801F0B7FBDDF82B
:100500008480DDF87490002423E11DA800EB4410E2
:100510004069A0EB08011DA800EB44104068A0EB67
:10052000090043F60952504301EBC0051DA800EB3A
:1005300044108069A0EB08011DA800EB44108068FE
:10054000A0EB0900504301EBC0071DA800EB4410CD
:10055000C1691DA800EB44104069091A1DA800EBF1
:100560004410C0681DAA02EB44125268801A43F678
:100570000952504301EBC0062948007810B1012808
:1005800031D161E01F480088B0F5966F05DD29483C
:10059000854202D20020029025E042F2107086428D
:1005A00001DC002E02DA002002901CE02248854285
:1005B00017D205F035F8CDF8340401201F49087032
:1005C00000201F4908701F48097830F811000D49B4
:1005D00008800846008801F04CFADDF8340405F084
:1005E00023F8012002907AE0540000200000B0407F
:1005F00066660A4028000020000008403000002005
:10060000666606400C0000200000F03F9A99999918
:100610009999E93F3333E33F9999D93F040000208A
:10062000150000200900002008000020C818002044
:1006300010000020A0860100801A06002000002083
:100640000000002064720008FE480088B0F5966F34
:1006500009DDFD48854206D240F6B830864202DD0B
:10066000002002903AE042F21070864202DCB6F5B9
:10067000FA6F10DA04F0D4FFCDF834040120F34906
:1006800008700020F2490870DDF8340404F0CCFF53
:100690000020029022E0EF4885421DD2E948008800
:1006A00040F21451884217DA04F0BAFFCDF834044E
:1006B0000120E64908700020E7490870E7480978FA
:1006C00030F81100DF4908800846008801F0D1F9B0
:1006D000DDF8340404F0A8FF0120029000BF00BF41
:1006E0008FB1DF4887420ED2D6480088B0F5966FAA
:1006F00009DC04F095FFCDF83404DA480760DDF832
:10070000340404F091FFD648854202D80DB1029816
:1007100000B91CE00096294603A8DDE91B32FFF76B
:10072000CFFE58460BF1010B07A901EB001003A9FE
:1007300091E80E10A0E80E10BBF1050F06D14FF0A6
:10074000000B07A9C848006804F026F900BF601C28
:10075000C4B25445FFF6D9AE0A2001F0F6FAC0E65D
:100760002DE9F04F87B006460C469146D4E90021AA
:10077000104606F0B7FA0546280A8DF81000E8B2D0
:100780008DF81100284606F0F1FA8246D4E900738C
:100790003A4606F06FFC0022B44BCDE9000106F0AA
:1007A00035FBCDE9020106F09DFAC0B28DF81200CA
:1007B000CDF81490DDE90401C6E9000107B0BDE8F9
:1007C000F08F2DE9F04F89B004460D469E48089001
:1007D000002213462046294606F0DCFA01D285F0B5
:1007E00000450022A24B2046294606F06FF8002261
:1007F0009F4BCDE904012046294606F047FCCDE990
:100800000201DDE9042306F015F9074688463A4659
:1008100043463846414606F0F9FACDE90601089EFE
:10082000700000F1010B584606F089FA02460B46AB
:10083000CDE9040100208E4906F0FCF881468A4685
:10084000089E1DE0ABF1020B4A465346DDE9060166
:1008500006F0DCFACDE90401584606F070FA0246CB
:100860000B46CDE900010020814906F0E3F8CDE90F
:100870000201DDE9042306F029F881468A46761E46
:10088000002EDFDC3A46434600204FF0804106F060
:10089000BDFA4A465346CDE9040106F0B7FA09B05D
:1008A000BDE8F08F2DE9F04F8DB081460C4640F247
:1008B0004C412068884237D92068B0F5FA6F33D2AE
:1008C000206806F053FA07466A4A6B4B06F09EFA18
:1008D00000226A4BCDE9000105F0F8FF8246FFF7E0
:1008E00070FF674A674BCDE9020106F08FFACDE948
:1008F0000401D9E900733A4606F0BCFB624A634B37
:10090000CDE9060105F0E2FF4FF03332604BCDE94F
:10091000080106F0BBFB5F4A5F4BCDE90A0105F019
:10092000D5FF05460E4631E02068B0F5FA6F23D3B7
:10093000206806F01BFA0746584A594B06F066FA3B
:10094000CDE90601D9E900733A4606F093FB8246E9
:10095000544A554B06F09AFB4FF033324C4BCDE9DD
:10096000080106F093FB4B4A4B4BCDE90A0105F019
:10097000ADFF05460E4609E04FF03332444BD9E94E
:100980000071384606F082FB05460E462846314681
:100990000DB0BDE8F08F88B04FF0000A00240020B1
:1009A0000690814641490870082004F041FC00206F
:1009B0002949087004F034FE8246284826490978FF
:1009C00030F811001F4908800846008801F051F8EE
:1009D000504604F029FE4FF4FA7001F0B6F99EE19A
:1009E0003348007801280AD104F01AFE82461548DF
:1009F000018830A004F070FE504604F015FE04F0AB
:100A00000FFE82462D480078D0B12C4801782C4842
:100A1000FFF7E1FC2949087800EBD0714910284A1A
:100A200002EB01110C682549087800EBD0714910E0
:100A300002EB0111C9680691034884424AD241E0A1
:100A400050E000000C000020A086010020000020E3
:100A500021000020400D0300000000206472000807
:100A600080969800100000200400002000007040D4
:100A70000000F03F569FABADD8DF25C00053C64005
:100A8000696FF085C954EB3FF4FDD478E92608403E
:100A9000333303409A999999999901402D431CEB5E
:100AA000E2363A3F5DDC4603784B10400A000020F6
:100AB00014000020713A25640A000000090000209B
:100AC000C818002040F698010698884202D94FF0D5
:100AD000000901E04FF001090020FE490870FE49BD
:100AE000087001E04FF00009504604F09DFDB9F197
:100AF000000F7CD0F948007810B90120F749087040
:100B00000020F7490870204606F030F90746002219
:100B1000F44B06F07BF905460022F34B05F08AFF03
:100B2000F24A03C2F14903C9CDE90201F048007855
:100B300001280AD104F074FD8246EEA0DDE902230B
:100B400004F0CAFD504604F06FFDED48007810B186
:100B5000012825D117E00022EA4BDDE9020106F069
:100B600019F909D24FF03332E74BE04903C906F0D7
:100B70008DFADE4A03C205E006A902A8FFF792FE3D
:100B8000DA4A03C20DE006A902A8FFF78BFE05466C
:100B90004FF03332DD4B06F079FAD44A03C200E05D
:100BA00000BF00BFD2480078012810D104F038FD02
:100BB0008246D7A004F090FD06980090CB480CC860
:100BC000D4A004F089FD504604F02EFDA3E004F00B
:100BD00027FD8246C5496846069AFFF7C1FDDDE953
:100BE0000001CDE9040100BF4021CF4800E024E02E
:100BF00001F03AFF0028F7D09DF81010CA4801F024
:100C0000C5FE00BF4021C84801F02EFF0028F9D0E2
:100C10009DF81110C44801F0B9FE00BF4021C24840
:100C200001F022FF0028F9D09DF81210BE4801F013
:100C3000ADFE504604F0F8FC6DE0AD48007830BBE6
:100C400004F0EEFC824600BF4021B74801F00CFFE3
:100C50000028F9D0FF21B44801F098FE00BF4021E0
:100C6000B14801F001FF0028F9D0FF21AE4801F0A2
:100C70008DFE00BF4021AC4801F0F6FE0028F9D0FF
:100C8000FF21A94801F082FE504604F0CDFC9348B4
:100C90000078F0B9A54800780D2805DAA348007857
:100CA000401CA249087002E001208C49087004F041
:100CB000B7FC82469E489D49097830F811009D494D
:100CC00008800846008800F0D4FE504604F0ACFCD2
:100CD00021E083480078042805DA81480078401C28
:100CE0007F49087017E000207C4908707C49087033
:100CF0008E49087004F094FC82468D488B4909782F
:100D000030F811008B4908800846008800F0B1FED9
:100D1000504604F089FC4FF4FA7001F016F85FE6D3
:100D200070B50446002501208349086001F00DF8E4
:100D300000208249C1F8900101208149087000BF5C
:100D40000102804803F092FC7F4908604FF47A71F9
:100D5000042000F079FF04F063FC054605237B4A7C
:100D60000021AFF2CD3003F0E3FF0623784A0021E3
:100D7000AFF6A50003F0DCFF0723764A0021AFF6AB
:100D8000971003F0D5FF0823734A0021AFF68D209A
:100D900003F0CEFF0A2004F04BFA284604F044FC8E
:100DA00070BD10B501205249087001216B4801F057
:100DB00024FA012802D15249087002E0002050496B
:100DC000087010BD10B54FF4A06001F0B5F800F048
:100DD0006BFF4FF4165000F0F4FFFFF7E2FF00F056
:100DE000D5FC00F0F5FE00F0D7FD00F055FE00F058
:100DF00068FE00F029FC00F0C5FA00F0E8FA4E4B5E
:100E00000C331A1F56493C2000F06CFD4A4B0C3342
:100E10001A1F5349502000F072FD474B083B1A1F20
:100E2000191D502000F05EFD434B083B1A1F191D91
:100E3000502000F064FD012000F00FFE3D480088C6
:100E400000F017FE02F0CDFB0A23464A0021AFF264
:100E50002F1003F06DFF02F0EBFC002010BD2DE918
:100E6000F04704464FF00009A07805F07FFF0746E1
:100E700000223D4B05F0DEFD05460E4660782178E8
:100E800000EB01201FFA80F9484605F06FFF074686
:100E90002A46334605F01AFDBDE8F08701460020DA
:100EA0000A78104400024A78104400028A781044FC
:100EB00070472DE9F0410446E0B205F057FF0746C0
:100EC0000022294B05F0B6FD05460E46200A05F026
:100ED0004DFF4BE00900002008000020200000200A
:100EE000210000200000F83F0088C34018000020C7
:100EF000140000200A0A4F52473A252E32660A0093
:100F00001500002000004940333303403333D33F02
:100F10004D563A00643A252E326620090920657440
:100F20003A25640A0000000000380140000000205B
:100F3000647200080C000020900121420000214250
:100F40000A000020C814002004000020C40900206A
:100F5000C4110020C4130020C41400200008014064
:100F600080812142C40100200000704007462A46CB
:100F7000334605F0ABFC05460E4628463146BDE833
:100F8000F0817FB50446002221466846FFF7E8FB62
:100F9000DDE90001CDE9020102A8FFF77FFF054668
:100FA000284604B070BD70B50446A078642100FBEB
:100FB00001F56078237800EB0321E81705EB10605A
:100FC000021235A004F088FB70BD70B504462046BF
:100FD000FFF76FFF05460E462A46334631A004F060
:100FE0007BFB70BD7CB5034653F831402FE000E039
:100FF000521E914203DA53F83200A042F8D203EBBA
:10100000C10521CDCDE9000503EBC10003EBC2060C
:1010100060CE60C003EBC200DDE9005660C000E0B6
:10102000491C914203DA53F83100A042F8D903EB8E
:10103000C10521CDCDE9000503EBC10003EBC206DC
:1010400060CE60C003EBC200DDE9005660C0914293
:10105000CDDB08467CBDF0B507460D461646B542C9
:101060000FDA324629463846FFF7BCFF0446621EB7
:1010700029463846FFF7EFFF3246611C3846FFF736
:10108000EAFFF0BD30B505460C46621E0021284639
:10109000FFF7E1FF30BD000025642E2530326420CB
:1010A00000000000252E326620000000704700BFBF
:1010B000FEE700BFFEE700BFFEE700BFFEE77047A8
:1010C000704700000CB50020019000906C4800684B
:1010D00040F480306A49086000BF6948006800F445
:1010E000003000900198401C0190009818B90198B8
:1010F000B0F5A06FF1D16248006800F4003010B183
:101100000120009001E0002000900098012843D1C8
:101110005C48006840F010005A49086008460068C2
:1011200020F0030008600846006840F002000860F4
:10113000534840685249486008464068486008463D
:10114000406840F4806048600846406820F47C10A5
:1011500048600846406840F4E81048600846006867
:1011600040F08070086000BF4548006800F00070E3
:101170000028F9D04248406820F003004049486008
:101180000846406840F00200486000BF3C484068A4
:1011900000F00C000828F9D10CBD10B5FFF792FF44
:1011A00010BD10B53648006840F0010034490860B1
:1011B000084640683449084031494860084600689C
:1011C000324908402E4908600846006820F4802013
:1011D00008600846406820F4FE0048604FF41F0095
:1011E0008860FFF7DAFF4FF000602949086010BD02
:1011F00010B5002100200022214B5B6803F00C0198
:1012000021B1042906D0082928D107E0214B224C1E
:10121000236027E01F4B204C236023E0184B5B68C2
:1012200003F47010164B5B6803F48032022303EB67
:10123000904022B9194B4343174C23600DE0104BEB
:101240005B6803F4003323B1144B4343124C236017
:1012500003E0104B4343104C236003E00D4B0E4C56
:10126000236000BF00BF064B5B68C3F303130C4C45
:10127000E15C094B1B68CB40074C236010BD0000AC
:1012800000100240002002400000FFF8FFFFF6FEC1
:1012900008ED00E000127A003800002000093D004F
:1012A0003C00002008B501210C2001F0CFF94FF4DB
:1012B000C840ADF8000010208DF8030003208DF821
:1012C000020069462C4800F005FF4FF4C8412A4847
:1012D00000F0AFFF0121082001F0B8F94FF4004001
:1012E000ADF8000028208DF803006946224800F080
:1012F000F1FE00202149086008BD70B505460020B8
:101300001E490860072414E00A2000F0F3FC45FAA7
:1013100004F000F001001949091D08600120184976
:10132000C1F8B4010A2000F0E5FC00201349086070
:10133000641E002CE8DA70BD70B504462546002016
:101340002870072615E001200C4908600A2000F0EB
:10135000D1FC0020094908602878084978390968D3
:1013600001F00101B140084328700A2000F0C2FCDE
:10137000761E002EE7DA70BD000C0140B4812142D8
:101380000080214208B501210C2001F05FF94FF4E3
:101390008850ADF8000010208DF8030003208DF870
:1013A00002006946A34800F095FE4FF48851A14819
:1013B00000F03FFF0420ADF8000048208DF8030046
:1013C00069469C4800F086FEFFF76CFF08BD38B503
:1013D0000020009001209849086000209749C1F83A
:1013E000A8013020FFF789FF012093490860002001
:1013F0000860934908708020FFF77FFF002404E015
:101400009049085DFFF779FF641C112CF8DB01207F
:101410008949086000208949C1F8A8014020FFF7E8
:101420006CFF002411E06846FFF786FF8548005DE9
:101430009DF80010884202D0012081490870804840
:10144000007808B100BFFEE7641C112CEBDB7C4880
:10145000007848B901207849086000207749C1F830
:10146000A8011820FFF749FF38BDF8B50546002050
:101470000090002600240FE0002045F82400002101
:1014800005F1100040F82410002045F8240005F173
:10149000100040F82410641C042CEDDB04E000F084
:1014A00042F9012000F051FC6348A0380068002890
:1014B000F5D101206049086000206049C1F8A80109
:1014C00004F0AEF806466820FFF717FF00244CE052
:1014D0006846FFF731FF55F824009DF8001000EB37
:1014E000014045F824006846FFF726FF55F8240020
:1014F0009DF8001000EB012045F824006846FFF736
:101500001BFF55F824009DF80010084445F82400FE
:101510006846FFF711FF05F1100050F824009DF810
:10152000001000EB014105F1100040F8241068465E
:10153000FFF702FF05F1100050F824009DF800109D
:1015400000EB012105F1100040F824106846FFF778
:10155000F3FE05F1100050F824009DF8001001443E
:1015600005F1100040F82410641C042CB0DB304658
:1015700004F05AF8F8BD2DE9F843804600200090A9
:10158000002504E000F0CFF8012000F0DEFB2A483F
:10159000A03800680028F5D143E001202649086002
:1015A00000202649C1F8A8016820FFF7A6FE002404
:1015B00033E0002600276846FFF7BEFE9DF80000D6
:1015C00006EB00466846FFF7B7FE9DF8000006EB05
:1015D00000266846FFF7B0FE9DF800000644684606
:1015E000FFF7AAFE9DF8000007EB00476846FFF7EB
:1015F000A3FE9DF8000007EB00276846FFF79CFE5E
:101600009DF80000074408EB451040F8246008EB03
:101610004510103040F82470641C042CC9DB681C91
:10162000C5B20548A03800680028B6D02846BDE8F5
:10163000F8830000000C0140A88121420080214273
:101640004C0000208472000808B50121082000F039
:10165000FDFF6820ADF8000010208DF80300032086
:101660008DF802006946404800F034FD68213E488C
:1016700000F0DFFD0121052000F0E8FF01213B48DB
:1016800000F0F9FD4FF40040ADF8000010208DF897
:10169000030003208DF802006946354800F01AFD6A
:1016A0004FF40041324800F0C4FD0121092000F050
:1016B000CDFF01212D4800F0DEFD1020ADF8000027
:1016C00048208DF803006946274800F003FD0020FC
:1016D0002849086001202849C1F88C0108BD08B5D7
:1016E0000121112000F0B2FF012001F022FA0020B8
:1016F00000F019FF002001F082FA4FF46040ADF8CD
:10170000000002208DF8020048208DF80300694691
:101710001A4800F0DFFC002001F00BFA002000F076
:1017200002FF08BD704700B5012015490860FFF7AA
:10173000F9FF00201349C1F8BC0100BD12E00024EC
:1017400005E0042000F001FBFFF7EDFF641C142C02
:10175000F7D34FF4C87000F0F8FA0B480068401C4B
:1017600009490860EBE70000000C0140000230006E
:101770000008014098812142008021420010014070
:10178000BC012142000021425000002008B5012187
:101790000C2000F05BFFCE20ADF8000010208DF88B
:1017A000030003208DF802006946754800F092FCA2
:1017B000CE21734800F03DFD0120ADF8000010205F
:1017C0008DF8030003208DF8020069466D4800F093
:1017D00081FC01216B4800F02AFD0821684800F0D7
:1017E00026FD08BD2DE9F0470746884614461D46EC
:1017F000DDF820A04FF0000900BF49EA070048EAE1
:1018000000290120206000202060012000F072FAF1
:10181000002028600F2613E00A2000F06BFA29FA56
:1018200006F000F00100CAF800000A2000F062FA99
:10183000012028600A2000F05DFA00202860761E52
:10184000002EE9DA0A2000F055FA01202060BDE8F8
:10185000F0872DE9F04105460E46002700BF47EA14
:10186000050046EA00270120474908600020474953
:10187000C1F88001012000F03DFA002044490860D1
:101880000F2417E00A2000F035FA27FA04F000F0E0
:1018900001003F49091D08600A2000F02BFA0120D1
:1018A0003C49C1F898010A2000F024FA0020384988
:1018B0000860641E002CE5DA0A2000F01BFA012003
:1018C00031490860BDE8F08110B504462146012089
:1018D000FFF7BFFF10BD10B5044621460220FFF7F9
:1018E000B8FF10BDF8B504460D4616461F463346F0
:1018F0002A46214601200097FFF774FFF8BDF8B58E
:1019000004460D4616461F4633462A462146022007
:101910000097FFF767FFF8BDF8B504460D46164679
:101920001F4633462A46214611200097FFF75AFFEB
:10193000F8BDF8B504460D4616461F4633462A46FE
:10194000214612200097FFF74DFFF8BDF8B5074676
:101950000C4615461E462B46224600213320009693
:10196000FFF740FFF8BDF8B507460C4615461E4682
:101970002B462246002123200096FFF733FFF8BDB7
:1019800000080140000C014080812142008021427A
:10199000980121420000214208B50121082000F0F1
:1019A00055FE40F28230ADF8000010208DF80300A3
:1019B00003208DF802006946344800F08BFB40F2AA
:1019C0008231324800F033FC0020314908600120A8
:1019D0003049C1F89C0100202D49091D08602D499E
:1019E000C1F8840108BD70B505460120284908608A
:1019F00000202849C1F8A40101202549091D0860DB
:101A000000F078F9002022490860091D08600F24C1
:101A100015E0012000F06EF945FA04F000F0010035
:101A20001B491C39086000201A49C1F89C0101209B
:101A300000F060F901201649091F0860641E002C9F
:101A4000E7DA01201249091F08601249C1F8A40110
:101A50000F49086000F04EF970BD10B50446042C23
:101A600005DA44F45040FFF7BEFF012010BD00200E
:101A7000FCE710B50446B4F5805F05DA44F4804015
:101A8000FFF7B1FF012010BD0020FCE7000C014072
:101A9000A08121420080214208B50121042000F0EC
:101AA000D5FD1020ADF80000ADF8000003208DF842
:101AB00002006946414800F00DFB012040490860E2
:101AC00008BD00B591B00121084600F0B2FD01212A
:101AD0004FF4017000F0BAFD2020ADF84000002066
:101AE0008DF8430010A9354800F0F4FA354801F0AC
:101AF00005FB3548009035480190002002900120F8
:101B000003900020049005904FF4807006908000B0
:101B10000790202008900002099000200A90694652
:101B2000284801F08DFB0121264801F0B4FB00207C
:101B30000B908DF8300001208DF831004FF46020BB
:101B40000D9000200E9001208DF83C000BA91E483E
:101B50004C3801F0D2F84FF4404000F0DBFC052394
:101B60000122194618484C3801F05FF90121164846
:101B70004C3801F0F9F8012113484C3801F0E9F82C
:101B800011484C3801F007F900BF0F484C3801F0FC
:101B900007F90028F9D10C484C3801F00BF900BFC7
:101BA00009484C3801F00BF90028F9D10121064809
:101BB0004C3801F00EF911B000BD000000080140E2
:101BC00090012142080002404C24014054000020B2
:101BD00008B50121042000F039FD0120ADF8000016
:101BE00028208DF803006946154800F073FA08BDF7
:101BF00010B5044614B1012012490870114800784C
:101C000098B101210E4800F0F8FA01280DD10A2000
:101C100000F09BF800200B4908700121084800F0F3
:101C2000ECFA012809D1042010BD0121044800F07C
:101C3000E4FA10B90120034908700020F4E700001D
:101C4000000801405600002070B505460C4645F2DC
:101C5000555001F07DFB284601F07DFB204601F048
:101C60007DFB01F07EFB01F081FB70BD10B501F042
:101C700078FB10BD10B501F01FFD10BD10B501F0CF
:101C800060FD10BD10B50446204603F099FB10BD61
:101C900010B53E480078012805D101F0BAFC01F0EA
:101CA000FEFD01F0D1FC10BD10B56FF0040000F096
:101CB00092F9374800683749B0FBF1F036490870AF
:101CC000334800683349B0FBF1F441F288304443B3
:101CD0000520324908804FF0E020006940F0020002
:101CE0004FF0E021086108464461006940F00100BE
:101CF000086110BD2DE9F047074600264FF0E020AF
:101D0000D0F814902448007807FB00F800BFFFF7D4
:101D1000B1FF4FF0E020856911E04FF0E0208469C9
:101D2000AC420CD0AC4202D2281B064403E0A9EB23
:101D30000400284406442546464500D300E0ECE76D
:101D400000BFFFF79BFFBDE8F08770B504460F4862
:101D50000078A0B11248007888B910480088844201
:101D600006DB0E48008894FBF0F52846FFF78AFF53
:101D70000A48008894FBF0F100FB114084B24FF454
:101D80007A7104FB01F0FFF7B5FF70BD9E000020E3
:101D90003800002000127A00580000205A0000206D
:101DA00091000020014600BF704700BF4E4A1288D4
:101DB00002F04002002AF9D0C2B24B4B1B1D1A8020
:101DC000704710B586B00446012144F2040000F0CB
:101DD0003DFC4FF40070ADF8140003208DF81600A0
:101DE00018208DF8170005A9404800F073F94FF44A
:101DF0008060ADF8140004208DF8170005A93B4859
:101E000000F068F925208DF8000003208DF801000E
:101E10008DF8020001208DF80300684600F091F86B
:101E200001944FF48050ADF808000020ADF80A008E
:101E30004FF48060ADF80C000020ADF810000C20CD
:101E4000ADF80E0001A9284800F0A7FC012240F2DD
:101E50002551254800F039FD0121234800F029FDD6
:101E600006B010BD10B501F0D4FB40F225511E485C
:101E700000F010FE10B31C4800F08CFDC4B21C48EA
:101E8000008800F40040C8B91948008800F4804078
:101E900060B10A2C03D000201549088020E01448C6
:101EA000008840F400401249088019E00D2C06D14A
:101EB0000F48008840F480400D49088010E00C482D
:101EC0000088C0F30D000B490C5409480088401CE1
:101ED0000749088008460088C72801DD00200880DF
:101EE00001F0B2FB10BD00000038014000080140C5
:101EF0006000002068190020094880470948004711
:101F0000FEE7FEE7FEE7FEE7FEE7FEE7FEE7FEE7A9
:101F1000FEE7FEE704480549054A064B7047000006
:101F2000A31100083101000888250020882B00201B
:101F3000882700208827002031490143314A116059
:101F4000704770B5002100230F22C47804B32D4CD4
:101F5000246804F4E064C4F5E064210AC1F10403D8
:101F6000CA40447804FA03F18478144021430901FB
:101F7000254C0678A155047804F01F050124AC40D7
:101F800005786D11AD0005F1E025C5F8004109E0C7
:101F9000047804F01F050124AC401C4D067876112E
:101FA00045F8264070BD1A4A0A400243154B1B1FD4
:101FB0001A60704739B1134A121D12680243114B5F
:101FC0001B1D1A6006E00F4A121D126882430D4B5A
:101FD0001B1D1A607047042808D14FF0E0210969E1
:101FE00041F004014FF0E022116107E04FF0E021E1
:101FF000096921F004014FF0E022116170470000EF
:102000000000FA050CED00E000E400E080E100E0F3
:1020100080FFFF1F10B50446CC48844208D101213F
:10202000042000F02DFB0021042000F029FB46E0F5
:10203000C748844208D10121082000F021FB00217B
:10204000082000F01DFB3AE0C248844208D101217B
:10205000102000F015FB0021102000F011FB2EE0F5
:10206000BD48844208D10121202000F009FB002155
:10207000202000F005FB22E0B848844208D101216D
:10208000402000F0FDFA0021402000F0F9FA16E0AF
:10209000B348844208D10121802000F0F1FA0021E8
:1020A000802000F0EDFA0AE0AE48844207D1012119
:1020B000801500F0E5FA0021A01500F0E1FA10BD4E
:1020C00010B50121084600F0DBFA0021012000F0E4
:1020D000D7FA10BD2DE9F041024600250026002068
:1020E00000230024002791F803C00CF00F0591F89D
:1020F00003C00CF0100CBCF1000F03D091F802C02B
:102100004CEA050591F800C0BCF1000F31D014680D
:1021100000202BE04FF0010C0CFA00F3B1F800C0E6
:102120000CEA03069E4220D183004FF00F0C0CFAFC
:1021300003F7BC4305FA03FC4CEA040491F803C01E
:10214000BCF1280F06D14FF0010C0CFA00FCC2F8CC
:1021500014C00AE091F803C0BCF1480F05D14FF05C
:10216000010C0CFA00FCC2F810C0401C0828D1D3A6
:102170001460B1F800C0BCF1FF0F34DD54680020DA
:102180002EE000F1080C4FF0010808FA0CF3B1F84A
:1021900000C00CEA03069E4221D183004FF00F0CD1
:1021A0000CFA03F7BC4305FA03FC4CEA040491F86B
:1021B00003C0BCF1280F05D100F1080C08FA0CF897
:1021C000C2F8148091F803C0BCF1480F07D100F1A8
:1021D000080C4FF0010808FA0CF8C2F81080401CF7
:1021E0000828CED35460BDE8F0814FF6FF7101801E
:1021F000022181700421C17070470246002093685B
:102200000B400BB1012000E00020704701468868B8
:1022100080B2704702460020D3680B400BB101200A
:1022200000E0002070470146C86880B27047016135
:102230007047416170470AB1016100E04161704738
:10224000C16070474FF480320A43826181618261CC
:1022500082698269704702460020434B18684FF636
:102260008073184040EA021008433F4B18607047E3
:102270003E49C8617047F0B50A460023002400219A
:10228000002500F00046B6F1004F02D1364EF1694C
:1022900001E0354E7168C0F3034583B200F4401687
:1022A000B6F5401F08D121F070612F4E766826F0F8
:1022B00070662D4F7E6012E000F48016B6F5801F28
:1022C00006D1032606FA05F4A14341F0706106E049
:1022D000460D360103FA06F6B14341F0706122B1B2
:1022E000460D360103FA06F6314300F00046B6F11A
:1022F000004F02D11C4EF16101E01B4E7160F0BD38
:1023000030B500228B071C0F0F2303FA04F2164B83
:1023100008338C1053F824309343134C08348D1039
:1023200044F8253023468C1053F824308C07240FB2
:1023300000FA04F423430C4C08348D1044F8253083
:1023400030BD0A49DC3108607047000000080140D8
:10235000000C014000100140001401400018014031
:10236000001C01400020014000000140000020420C
:10237000DF48006840F00100DD4908600846406819
:10238000DC490840DA49486008460068DA490840F4
:10239000D74908600846006820F480200860084695
:1023A000406820F4FE0048604FF41F0088607047CA
:1023B000CF49096821F48031CD4A1160114609687E
:1023C00021F480211160B0F5803F03D0B0F5802F5B
:1023D0000ED106E0C649096841F48031C44A116053
:1023E00007E0C349096841F4A021C14A116000E037
:1023F00000BF00BF704710B5014600220023002037
:102400004A11012A02D1BA4C236806E0022A02D1FD
:10241000B74C236A01E0B64C636A01F01F02012445
:1024200094401C400CB1012000E0002010BD38B5E4
:10243000002000900024002500BF3120FFF7DBFFC3
:1024400005460098401C00900098B0F5A06F01D0A0
:10245000002DF2D03120FFF7CEFF08B1012400E0BB
:102460000024204638BD01460020A14A106820F013
:10247000F80040EAC10010607047A049086070474A
:10248000024600209A4B586820F47C1042EA01036F
:102490001843974B58607047984908667047014643
:1024A0000020934A506820F00300084350607047B2
:1024B0008F48406800F00C007047014600208C4AAD
:1024C000506820F0F000084350607047014600203B
:1024D000874A506820F4E060084350607047014626
:1024E0000020834A506820F4605040EAC1005060E8
:1024F000704729B17E4A527A02437D4B5A7204E0FA
:102500007B4A527A82437A4B5A7270477B49D83160
:102510000860704701460020754A506820F440402A
:102520000843506070470021714A20321170704A90
:1025300082F82010012802D004280AD104E00121E9
:102540006B4A2032117005E00521694A2032117072
:1025500000E000BF00BF70476949086070476449E8
:10256000096A0143624A116270476549443908604B
:10257000704730B500210022002400235C4D6D68B7
:1025800005F00C0121B1042905D0082923D105E06B
:102590005C4D056022E05B4D05601FE0544D6D68A9
:1025A00005F47012524D6D6805F48034022505EB78
:1025B00092421CB9544D554305600BE04C4D6D687B
:1025C00005F400351DB1504D5543056002E04D4DF9
:1025D0005543056002E04B4D056000BF00BF444D10
:1025E0006D6805F0F0010909484D6B5C0568DD4038
:1025F00045603F4D6D6805F4E061090A434D6B5C31
:102600004568DD4085603A4D6D6805F46051C90A42
:102610003E4D6B5C4568DD40C560354D6D6805F429
:102620004041890B3A4D6B5CC568B5FBF3F505611C
:1026300030BD29B12E4A526902432D4B5A6104E044
:102640002B4A526982432A4B5A61704729B1284A62
:1026500092690243264B9A6104E0254A92698243BB
:10266000234B9A61704729B1214AD2690243204B1A
:10267000DA6104E01E4AD26982431D4BDA61704779
:1026800029B11B4AD2680243194BDA6004E0184AA8
:10269000D2688243164BDA60704729B1144A126936
:1026A0000243134B1A6104E0114A12698243104B32
:1026B0001A61704712494039086070470F49C86471
:1026C00070470B49C87170470948406A40F08070F4
:1026D00007494862704701460020054A92680A404F
:1026E0000AB1012000E0002070470149887270475C
:1026F000001002400000FFF8FFFFF6FE000042421B
:102700008004424200127A0000093D00620000206D
:102710007200002010B50446FB48844209D1012113
:102720008803FFF7ADFF00214FF48040FFF7A8FFBB
:1027300032E0F648844209D101214804FFF7ADFF99
:1027400000214FF40030FFF7A8FF25E0F048844255
:1027500009D101218804FFF7A0FF00214FF4802058
:10276000FFF79BFF18E0EB48844209D10121C80420
:10277000FFF793FF00214FF40020FFF78EFF0BE0DF
:10278000E548844208D101210805FFF786FF0021B2
:102790004FF48010FFF781FF10BD2DE9F04786B0A0
:1027A00005460E460024A24600BFA1460027B08978
:1027B00000B100BF2F462C8A4CF6FF700440F08811
:1027C00004432C82AC894EF6F3100440B088318962
:1027D0000843718908430443AC81AC8A4FF6FF403B
:1027E0000440B0890443AC8201A8FFF7C2FEC6488A
:1027F000874202D1DDF810A001E0DDF80CA0A88925
:1028000000F4004040B10AEBCA0000EB0A10316846
:102810004900B0FBF1F807E00AEBCA0000EB0A1030
:1028200031688900B0FBF1F86420B8FBF0F00401D6
:102830002009642101FB1089A88900F4004040B1FF
:10284000322000EBC900B0FBF1F000F007000443B8
:1028500008E0322000EB09106421B0FBF1F000F039
:102860000F0004432C8106B0BDE8F0874FF41651E9
:10287000016000218180C18001810C214181002102
:102880008181704710B502460020108A4FF2FF0385
:1028900018400B884C8823438C882343CC882343DF
:1028A0001843108210BD0021018041808180C180C9
:1028B000704721B1828942F40052828104E082890A
:1028C0004DF6FF731A4082817047F0B5034600242D
:1028D00000260025002040F66A17B94200D100BF4B
:1028E0001846C1F3421401F01F06012707FA06F546
:1028F000012C01D10C3004E0022C01D1103000E099
:1029000014301AB107682F43076002E00768AF432D
:102910000760F0BD1AB1838A0B43838202E0838A89
:102920008B4383827047028A4FF6F0731A4002820B
:10293000028A0A430282704782894FF2FF731A406B
:10294000828182890A438281704721B1828942F063
:102950000202828104E082894FF6FD731A4082816F
:102960007047028A4FF6DF731A400282028A0A43D6
:102970000282704721B1028A42F48042028204E05E
:10298000028A4BF6FF731A4002827047C1F30802B5
:102990008280704701468888C0F3080070478189AB
:1029A00041F0010181817047028BD2B20283028B18
:1029B00042EA012202837047028B02F47F420283C3
:1029C000028B0A430283704721B1828A42F02002BF
:1029D000828204E0828A4FF6DF731A408282704757
:1029E00021B1828A42F01002828204E0828A4FF68C
:1029F000EF731A408282704721B1828A42F0080246
:102A0000828204E0828A4FF6F7731A40828270470E
:102A100021B1828942F40042828103E08289C2F3BB
:102A20000E028281704721B1828A42F40062828262
:102A300004E0828A4FF2FF731A4082827047828AD2
:102A40004FF6FB731A408282828A0A438282704761
:102A500021B1828A42F00202828204E0828A4FF629
:102A6000FD731A408282704702460020B1F5007F54
:102A700000D100BF13880B400BB1012000E0002003
:102A8000704701F40072B2F5007F00D100BFCA4365
:102A90000280704770B50246002400230025002004
:102AA00040F66A16B14200D100BFC1F3421501F0F1
:102AB0001F03012606FA03F3012D02D19689334044
:102AC00006E0022D02D1168A334001E0968A334097
:102AD0000C12012606FA04F41688344013B10CB126
:102AE000012000E0002070BD10B50022002340F658
:102AF0006A14A14200D100BF0A1201249440A3B27B
:102B0000DC43048010BD0000003801400044004058
:102B100000480040004C00400050004010B501212A
:102B20000807FFF7BAFD00214FF08050FFF7B5FD11
:102B300010BD2A490862704728490861704701465C
:102B40000020274A106820F0E0000843106070471A
:102B50002249A0310860704710B502460020204B82
:102B6000186820F00300104318601E4B1B6843F0E8
:102B700004031C4C2360012901D130BF00E020BFB9
:102B8000184B1B6823F00403164C236010BD144837
:102B9000006840F00400124908600846006840F0F0
:102BA000020008600F48006840F004000D4908600A
:102BB00000BF00BF30BF704701460020084A52687E
:102BC0000A400AB1012000E000207047044909686A
:102BD00041EA8001024A11607047000000000E4285
:102BE0000070004010ED00E010B50120FFF762FD1D
:102BF0000020FFF75FFD10BD2A4908607047294992
:102C0000091F0860704727498431086070470146F2
:102C10000020254A10884FF67F4210400843224A80
:102C200010807047014600201F4A10884FF68072BE
:102C3000104008431C4A1080704708B500220092DB
:102C4000194A2C3A0092009A02440092009A1160AC
:102C500008BD08B501460020009013482C380090AC
:102C60000098084400900098008808BD0D489C30EA
:102C70000068C0B270470C480830008840F001007E
:102C800009490831088070470648A0300068C0B282
:102C9000704705480830008840F0020002490831BA
:102CA0000880704704860D422C6C004010B5044625
:102CB000FA48844208D101214015FFF7E1FC0021C8
:102CC0006015FFF7DDFC17E0F548844208D10121CB
:102CD0000015FFF7D5FC00212015FFF7D1FC0BE014
:102CE000F048844208D10121C803FFF7C9FC002144
:102CF0004FF40040FFF7C4FC10BD30B50246002081
:102D000000235068E84C20400D790C6844EA052403
:102D1000204350609068E54C2040D1E902542C4398
:102D20004D7944EA450420439060D06A20F4700055
:102D30000C7C641EE4B2234340EA0350D06230BDF1
:102D400000210160017141718160C1600121017444
:102D5000704721B1826842F00102826003E082681C
:102D600022F001028260704721B1826842F48072D1
:102D7000826003E0826822F480728260704710B53E
:102D80000023CBB21AB144681C43446002E044689B
:102D90009C43446010BD816841F008018160704728
:102DA000014600208A6802F008020AB1012000E012
:102DB00000207047816841F004018160704701463E
:102DC00000208A6802F004020AB1012000E000201D
:102DD000704721B1826842F4A002826003E08268F9
:102DE00022F4A00282607047014600208A6802F443
:102DF00080020AB1012000E00020704710B50A46A9
:102E000000210023416821F46041531E41EA43310F
:102E1000416010BD21B1426842F40062426003E0AB
:102E2000426822F4006242607047F0B504460D46E5
:102E300000200021092D11DDE068A5F10A0606EB4E
:102E40004607072606FA07F18843A5F10A0606EBAE
:102E5000460603FA06F10843E0600CE0206905EB42
:102E60004507072606FA07F1884305EB450603FAEE
:102E700006F108432061072A0FDA606B561E06EB45
:102E800086071F2606FA07F18843561E06EB8606BC
:102E900005FA06F10843606322E00D2A0FDA206B81
:102EA000D61F06EB86071F2606FA07F18843D61FB2
:102EB00006EB860605FA06F10843206310E0E06A97
:102EC000A2F10D0606EB86071F2606FA07F18843D6
:102ED000A2F10D0606EB860605FA06F10843E0624C
:102EE000F0BD21B1826842F48012826003E0826802
:102EF00022F48012826070470146C86C80B270472D
:102F000066484C300068704721B1426842F48062E4
:102F1000426003E0426822F480624260704721B15F
:102F2000426842F48052426003E0426822F48052D8
:102F3000426070470A460021816821F4E041114354
:102F40008160704721B1826842F40042826003E0F0
:102F5000826822F400428260704721B1826842F4A4
:102F60000212826003E0826822F4021282607047DB
:102F7000014600208A6802F400120AB1012000E034
:102F800000207047F0B504461546002000220026B8
:102F9000092911DDE068A1F10A0707EB470C0727B3
:102FA00007FA0CF29043A1F10A0707EB470703FA6F
:102FB00007F21043E0600CE0206901EB410C0727A9
:102FC00007FA0CF2904301EB410703FA07F21043B2
:102FD0002061A06BC0F30156EF1C06F1010CA7EBBA
:102FE0000C0707EB870C1F2707FA0CF29043EF1C26
:102FF00006F1010CA7EB0C0707EB870701FA07F2B4
:103000001043A063F0BD10B50A4600210023816B78
:1030100021F44011531E41EA0351816310BD08B5EC
:10302000002300930090009B0B440093009B1A60C8
:1030300008BD08B5024600200090009201F128006A
:10304000009B184400900098006880B208BD0A46B2
:1030500000214168164B194011434160704741629D
:10306000826270470A460021416821F01F01114326
:103070004160704740B109490831096841F40001D5
:10308000064A0832116007E004490831096821F452
:103090000001024A0832116070470000002401401C
:1030A00000280140003C0140FFFEF0FFFDF7F1FF6A
:1030B000FFFD3FFF0246002013680B400BB10120CB
:1030C00000E000207047CA430260704770B50246B6
:1030D0000020002300240B125568CEB205EA060436
:1030E00015681D4015B10CB1012000E0002070BD35
:1030F00000220A12D34303607047000001684FF6B4
:10310000FE72114001600021016041608160C16078
:103110008D49884208D18C490839496841F00F012E
:10312000894A083A51608AE087491431884208D1B7
:1031300085490839496841F0F001834A083A5160ED
:103140007DE081492831884208D17F4908394968A2
:1031500041F470617C4A083A516070E07A493C3130
:10316000884208D178490839496841F47041764A63
:10317000083A516063E074495031884208D172497D
:103180000839496841F470216F4A083A516056E0A5
:103190006D496431884208D16B490839496841F466
:1031A0007001694A083A516049E0674978318842BC
:1031B00008D165490839496841F07061624A083AA6
:1031C00051603CE06149884206D1011F096841F025
:1031D0000F01021F116032E05C491431884208D1AE
:1031E0005A49091F096841F0F001584A121F11603D
:1031F00025E056492831884208D15449091F0968F9
:1032000041F47061514A121F116018E04F493C317E
:10321000884208D14D49091F096841F470414B4A61
:10322000121F11600BE049495031884207D14749CC
:10323000091F096841F47021444A121F1160704748
:1032400010B50022026847F6F0739A430C6A8B6847
:1032500023430C6923434C6923438C692343CC6982
:1032600023434C6A23438C6A23431A430260CB688E
:1032700043600B6883604B68C36010BD0021016030
:1032800041608160C160016141618161C161016230
:1032900041628162704721B1026842F0010202601E
:1032A00004E002684FF6FE731A40026070471AB1DC
:1032B00003680B43036002E003688B4303607047BD
:1032C000416070470146486880B27047014600205F
:1032D000002201F080531BB11C4B083B1A6802E02E
:1032E000194B083B1A6802EA01030BB1012000E008
:1032F0000020704700F0805119B11449091F08607F
:1033000002E0114908394860704701460020002258
:1033100001F080531BB10D4B083B1A6802E00A4BC9
:10332000083B1A6802EA01030BB1012000E000200B
:10333000704700F0805119B10449091F086002E08C
:1033400001490839486070470800024008040240FB
:103350000E49086070470D49486070470B49886006
:1033600070474AF6AA200949086070474CF6CC40DD
:1033700006490860704701460020044AD2680A40A6
:103380000AB1012000E0002070470000003000403A
:103390007CB5002514E06946284601F007FF064683
:1033A00066B9F84850F8254044B1012C06D0D4E95C
:1033B000020100EB810060640198A064681CC5B242
:1033C0003F2DE8D97CBD002400BF02E0282001F099
:1033D000F7FFED4800780028F8D0EC480068642139
:1033E000B0FBF1F0E94908600846006828B9002000
:1033F000E7490870FF2001F01BFF00BF02F010F941
:103400000446E4480068E44908600020E149086097
:10341000204602F009F9E0480068DC490968B0FB81
:10342000F1F0C0F16400DA49087002F0A6F8FFF785
:10343000AFFF142001F0C4FFE0E700B587B0032020
:1034400000218022D54BCDE90132CDE903104FF6A2
:10345000FE703E23D24A0090AFF2950001F0BFFC0F
:1034600006AAD0A13E2001F023FE07B000BD002433
:1034700000BF00BF02F0D4F80446C6480068401CF4
:10348000C4490860204602F0CFF802F075F8F1E771
:1034900000B587B0032000218022C64BCDE9013260
:1034A000CDE903104FF6FF703F23C34A0090AFF2FF
:1034B000410001F094FC06AAC0A13F2001F0F8FDF4
:1034C00007B000BD04E0002200F8012B4A1E91B2B3
:1034D0000029F8D1704770B5C821BC48FFF7F2FF4A
:1034E00000230FE0581C85B203EB8300B74901EBC2
:1034F000800405EB850001EB8006002020706660EB
:10350000581C83B2092BEDD303EB8300AF4901EBC9
:1035100080040020207060600846AD49086070BDDE
:1035200070B54FF47C71AB48FFF7CCFF4FF480715E
:103530009448FFF7C7FF002413E0601CC5B2C4EB3A
:10354000C40000EB4000A34901EB8003C5EBC500BC
:1035500000EB400001EB80065E619FA0D864601C18
:10356000C4B20B2CE9D3C4EBC40000EB4000994972
:1035700001EB80030020586197A0D8640020974990
:10358000086094489649086070BD0021954A117002
:10359000002004E00021944A1154411CC8B20828BC
:1035A000F8D30021914A1170914A1170914A11602B
:1035B000914A116070470020904908609049087056
:1035C00090490870904908709049087090490860C7
:1035D00070490860704908606C4908606A49087061
:1035E000704710B501F0C4FFFFF7E5FFFFF7CDFF0F
:1035F000FFF796FFFFF76FFF00F0ECFE00F0DDFF36
:1036000001F0D3FAFFF744FFFFF717FF01F0B1FF16
:1036100010BD7E480078012808D179480078FF283D
:1036200004D277480078401C754908707047794982
:103630006C4A1278885C6C49095C764A515C01EBF3
:10364000C0016B4A1170704710B500246F480078B4
:10365000012830D101F0E4FF04466948007820B128
:1036600067480078401E6649087065480078F8B9D8
:1036700064480078E0B9FFF7DAFF42485C4909780E
:1036800050F821005B49086059480078574909788B
:1036900088420DD057480068806B401C5549096826
:1036A00088635B480068401C5949086001F0D7FFF7
:1036B000204601F0B9FF10BD10B500245348007832
:1036C000012811D101F0ACFF04464D48007840B903
:1036D0004C480078FF2804D24A480078401C4949E9
:1036E0000870204601F0A0FF10BD10B5002401F0C5
:1036F00097FF044642480078F8B942480078E0B99C
:10370000FFF795FF1F483A49097850F821003949D9
:103710000860374800783549097888420DD0354827
:103720000068806B401C334909688863384800682A
:10373000401C3749086001F08BFF204601F074FF00
:1037400010BD10B500243148007801286FD101F078
:1037500067FF04462B48007880B12A480078401E55
:10376000284908700846007848B92548007838B9D3
:10377000204601F059FFFFF7B8FF58E054E04FE052
:103780004AE00000481F0020900000208800002030
:1037900084000020A00000208C000020481B002096
:1037A000441D002075432F4F532D49492053746108
:1037B00074000000481D0020441F002075432F4F57
:1037C000532D49492049646C65000000301A0020DF
:1037D0007C000020482000203F000000B0000020B6
:1037E000A8000020950000209600002093000020F3
:1037F00094000020AC000020A4000020C0000020A5
:1038000091000020920000209F0000209E000020D8
:1038100078000020B2720008204601F005FF06E0A3
:10382000204601F001FF02E0204601F0FDFE10BD40
:1038300010B5EB48007890B9FFF7F9FEE948007839
:10384000E9490870E948E749097850F82100E84952
:10385000086008460068E749086001F0E8FE10BD0E
:1038600010B50024022001F0ABFD01F0D9FE0446A2
:103870000020E1490860204601F0D6FE142001F046
:103880009FFD01F0CDFE0446DB480068DB4908607F
:103890000120DB490870204601F0C6FE10BD70B55E
:1038A000002601F0BAFE01F0BBFE0646D5480068CE
:1038B000401CD4490860304601F0B6FEC848007884
:1038C000012853D1D048007820B1012804D0022823
:1038D00009D103E001250BE0002509E001250120C5
:1038E000C949087004E001250020C749087000BFDD
:1038F00000BF05B970BDC548046833E001F090FE13
:103900000646E06A50B3E06A401EE062E06A28BB07
:1039100094F8300000F0370040B114F8300F00F098
:10392000C800207001206070303C02E0002084F864
:10393000310094F8300000F0080078B93434A078F1
:10394000B34909780843B24908702078B149085C46
:103950006178084314F83419AE4A5054646930460B
:1039600001F062FE94F832003F28C7D100BFC1E7E2
:1039700040F223107047704710B590F8342001F1E1
:103980000B039B5C90F83540A34301F10B04A35457
:1039900023469B5C23B98B7A90F83640A3438B7205
:1039A00010BD2DE9F04F05460F4690469946A87A7E
:1039B00099490E5C05F10B00805D11F800B00BEB2E
:1039C000C60000F0FF0A894850F82A400020203441
:1039D000E0602760207C20EA0800207484F81190C1
:1039E000207C203C00F0080068B994F83600884933
:1039F00009780843864908708648805D94F8351038
:103A000008438449885529462046FFF7B5FF5046AC
:103A1000BDE8F08F10B5774A1268D061754A126818
:103A200092F8343000F10B02D25C724B1B6893F8B1
:103A300035301A436F4B1B6893F8344000F10B0389
:103A40001A55827A6B4B1B6893F836301A43827290
:103A5000684A126892F834106E4A525C654B1B68D3
:103A600093F835309A436B4B5A541A46525C42B91C
:103A7000604A126892F83630654A12789A43644B6D
:103A80001A7010BD014600228A72002005E0002352
:103A900001F10B021354421CD0B20828F7D370472F
:103AA00005E011F8013B00F8013B531E9AB2002AD1
:103AB000F7D170470146002002E0491C421CD0B2F9
:103AC0000A78002AF9D170472DE9F84F05460F46CC
:103AD00090469946DDE90AAB0020009001F0A0FD78
:103AE00000904E480468002C75D0183454F8040C2B
:103AF0004A490860009801F097FD44F8187CA576C3
:103B0000002020766076606144F814BC44F80CAC68
:103B100044F8108C0C9824F8080C24F8069C00201B
:103B2000E077E810207705F00700E076217F01209C
:103B30008840A077E17E01208840607700206060A7
:103B4000E060A0602062A0626062E0622063AFF289
:103B500078306063183C002606E0002104F1500034
:103B600040F82610701CC6B2002EF6D0204601F098
:103B700053FD204601F0FEFC01F052FD00901B4871
:103B800040F825402148006860610020A0611F487E
:103B9000006810B11D48006884611C48046034341A
:103BA000A0781B49097808431949087020781949F9
:103BB000085C6178084314F83419164A50541848C0
:103BC0000078401C16490870009801F02DFD002077
:103BD000BDE8F88FFFE7009801F026FD4220F7E7E7
:103BE0009E0000209400002093000020481F002029
:103BF000AC000020A4000020A000002088000020CD
:103C000090000020C0000020B4000020B000002080
:103C10009500002096000020B2720008A800002045
:103C20009F0000202DE9F05F04460F4691461E4696
:103C30004FF0000B2078052804D0012030700020C0
:103C4000BDE8F09F09F0800ABAF1000F04D029F016
:103C500080094FF0010801E04FF0000800203070AB
:103C600001F0DEFC8346B9F1000F2CD0B9F1010F51
:103C70003BD0B9F1020F03D0B9F1030F46D111E0E7
:103C8000208900EA0705BD4206D1B8F1010F05D130
:103C90002089A843208101E070203070584601F04F
:103CA000C3FC3AE0208900EA070535B1B8F1010FFD
:103CB00005D12089A843208101E07020307058464A
:103CC00001F0B2FC29E0208927EA0005BD4206D1B7
:103CD000B8F1010F05D120892843208101E070202F
:103CE0003070584601F0A0FC17E0208927EA000553
:103CF00035B1B8F1010F05D120892843208101E0B9
:103D000070203070584601F08FFC06E0584601F0F4
:103D10008BFC00256F20307000BF00BF28468FE766
:103D20002DE9F04106460D460027FA48007820B1FB
:103D3000102028700020BDE8F08101F071FC0746DA
:103D4000F548046884B100684068F34908600520BC
:103D50002070268100206060F0A0E060384601F00D
:103D600063FC0020287004E0384601F05DFC7220FE
:103D700028702046DFE730B501464A6808682AB94E
:103D8000CC68606028B10025456002E0106000B199
:103D900042608B6800255D6230BDF0B506460F4677
:103DA000B4680020283460602780207A00F0DF00AB
:103DB000207200206072207A283C88B93434A078C0
:103DC000D74909780843D64908702078D549085C56
:103DD0006178084314F83419D24A5054012500E0A0
:103DE00000253046FFF7C7FF2846F0BD2DE9F04714
:103DF0000446894615464FF0000AC648007820B1AF
:103E00000F2028702046BDE8F0872078052803D0D1
:103E1000012028702046F6E701F002FC8246606827
:103E200008B1012700E00027B9F1000F03D0B9F174
:103E3000010F3CD119E08FB9B8A0E06000202070DC
:103E4000B5480068606000202081B3480460504697
:103E500001F0EAFB00202870002605E0504601F042
:103E6000E3FB49202870264628E0D4F8048005E0CA
:103E700000214046FFF791FFD8F80080B8F1000F0D
:103E8000F6D1A6A0E06000202070A3480068606022
:103E900000202081A0480460504601F0C5FB012F9E
:103EA00001D1FFF722FC00202870002606E05046D2
:103EB00001F0BAFB07202870264600BF00BF30463D
:103EC000A1E72DE9F04105460E461446002791482A
:103ED000007820B1112020700020BDE8F08101F0B1
:103EE0009FFB07462878052806D0384601F09CFB42
:103EF000012020700020F0E7E86830603068FFF7AC
:103F0000D9FD8046384601F08FFB002020704046E6
:103F1000E3E72DE9F04105460E46144600277D48AB
:103F2000007818B112202070BDE8F08101F078FB14
:103F300007462878052805D0384601F075FB012092
:103F40002070F1E7EE60384601F06EFB0020207033
:103F500000BFE9E7F0B51446059E734F3F6897F838
:103F6000307047F02007DFF8C0C1DCF800C08CF8E3
:103F700030700027DFF8B0C1DCF800C08CF8317079
:103F8000694F3F68FE62684F3F6879620C828B74AC
:103F9000654F3F688F6047680F6000274F60C860BB
:103FA000456805B1696041605F4F3F6897F834200C
:103FB0005C4FBF5CDFF870C1DCF800C09CF835C016
:103FC00027EA0C07DFF85CC10CF802706746BF5C9B
:103FD0005FB9554F3F6897F836C0514F3F7827EA91
:103FE0000C07DFF83CC18CF80070F0BD2DE9F04FF4
:103FF00089B005460F4691469A46129E00200290CF
:104000004448007828B102203070002009B0BDE893
:10401000F08F4648007818B10D2030700020F5E789
:104020002878052803D0012030700020EEE709F041
:10403000800BBBF1000F04D009F07F094FF001089D
:1040400001E04FF0000801F0EBFA0290B9F1000F27
:104050004AD0B9F1010F78D0B9F1020F03D0B9F10C
:10406000030F71D120E0288900EA0704BC420FD178
:10407000B8F1010F02D12889A04328812A4800689D
:104080000485029801F0D0FA002030702046BDE788
:104090004B463A4604A92846CDF800A0FFF75AFF40
:1040A000029801F0C1FA78E0288900EA07047CB19F
:1040B000B8F1010F02D12889A04328811A4800686D
:1040C0000485029801F0B0FA0020307020469DE788
:1040D0004B463A4604A92846CDF800A0FFF73AFF20
:1040E000029801F0A1FA58E0288927EA0004BC42AE
:1040F0001ED1B8F1010F02D12889204328810A4836
:1041000000680485029801F08FFA00203070204684
:104110007CE71AE091000020800000203F000000B2
:104120009500002096000020A400002092000020AE
:104130004B463A4604A92846CDF800A0FFF70AFFEF
:10414000029801F071FA28E01FE0288927EA0004AC
:104150007CB1B8F1010F02D1288920432881B148F0
:1041600000680485029801F05FFA00203070204654
:104170004CE74B463A4604A92846CDF800A0FFF785
:10418000E9FE029801F050FA07E0029801F04CFABB
:1041900000246F203070204638E700BFFFF7A5FAF3
:1041A00001F03EFA02909F48006890F8310020B379
:1041B0009C48006890F831000390002099490968F4
:1041C00081F8310004A8FFF7D6FD00209549096861
:1041D00081F83000029801F027FA002403980128A2
:1041E00005D0022802D10E20307003E000BF0A2063
:1041F000307000BF00BF204608E78A480068048D81
:10420000B8F1010F1ED1B9F1000F0ED0B9F1010FB5
:104210000CD0B9F1020F03D0B9F1030F0AD100E0BD
:1042200000BF2889A04328810BE000BF28892043D4
:10423000288106E0029801F0F7F96F203070002025
:10424000E4E600BF029801F0EFF90020307020464C
:10425000DCE670B5002501F0E3F905467148006819
:10426000048D284601F0E0F9204670BD2DE9FC5F81
:104270000446894692461E46002000902078052874
:1042800004D0012030700020BDE8FC9F01F0C8F987
:104290000090BAF1000F03D0BAF1010F0AD104E087
:1042A000208920EA090020810BE0208940EA0900EA
:1042B000208106E0009801F0B7F9712030700020ED
:1042C000E2E700BF4FF0000B656855E0A87C40B303
:1042D000012838D0022802D0032844D111E02089D7
:1042E000298A00EA0107288AB84209D139462846B6
:1042F000FFF753FD8046B8F1010F01D14FF0010BDC
:1043000038E02089298A00EA01074FB1394628465A
:10431000FFF743FD8046B8F1010F01D14FF0010BCB
:1043200028E0288A218920EA0107288AB84209D191
:1043300039462846FFF731FD8046B8F1010F01D11B
:104340004FF0010B16E0288A218920EA01074FB1BE
:1043500039462846FFF721FD8046B8F1010F01D10B
:104360004FF0010B06E0009801F05EF96F2030700D
:10437000002089E700BF2D68002DA7D1009801F02B
:1043800053F9BBF1010F01D1FFF7AFF901F048F983
:10439000009020890190009801F046F900203070CB
:1043A000019871E72DE9F04104460D460027207879
:1043B000052804D0012028700020BDE8F08101F01C
:1043C0002FF907462689384601F02EF9002028707B
:1043D0003046F2E72DE9F04150211348FFF772F81B
:1043E00000250EE0681C86B20F4800EB051400EBB8
:1043F0000617002020706760AFF2E020E060681CC4
:1044000085B2042DEED3084800EB0514002020707F
:104410006060AFF2F820E060034804490860BDE83E
:10442000F0810000A4000020F81A00208000002085
:104430002DE9FC5F05460F4691469A460020009004
:1044400001F0EEF800906F480468006820B16D48F4
:10445000006840686B490860009801F0E5F82CB9E5
:104460005A208AF800000020BDE8FC9FA8462E468E
:10447000781E01904FF0000B05E04E44C8F8006034
:10448000B0460BF1010B01988345F6D30020C8F824
:104490000000256065602761E760C4F808908AF82D
:1044A00000002046E0E72DE9F04104460D460027D4
:1044B00001F0B6F80746206968B166683068606048
:1044C0002069401E2061384601F0AEF800202870B7
:1044D0003046BDE8F081384601F0A6F85D2028702E
:1044E0000020F6E72DE9F04106460C461546002768
:1044F0004548007820B1112028700020BDE8F081E7
:1045000001F08EF80746706920602068FFF7D2FA44
:104510008046384601F088F8002028704046EDE7D4
:104520002DE9F04105460E4614460027364800782E
:1045300018B112202070BDE8F08101F071F8074633
:104540006E61384601F070F80020207000BFF2E77D
:1045500070B504460D46002601F062F80646D4E91F
:104560000310884204D3304601F05EF85E2070BD2F
:104570006068286065602069401C2061304601F059
:1045800053F80020F3E770B505460C46002601F00D
:1045900047F806462868206068686060A868A060E0
:1045A000E868E06028692061304601F03DF8D4E910
:1045B0000301401A6061002070BD70B57821134876
:1045C000FEF780FF00240EE004EB44000F4901EBEE
:1045D000C005601C00EB400001EBC00068600CA04F
:1045E0006861601C84B2042CEED304EB44000749DC
:1045F00001EBC0050020686005A06861084601491C
:10460000086070BDB8000020910000203824002010
:104610003F0000002DE9F04106460D464FF000082E
:104620003078022804D0012028700020BDE8F081F5
:1046300000F0F6FF80467468E08A78B12169081DB1
:1046400020610F68E08A401EE082A16820698842EC
:1046500001D1606820610020287002E01F202870CE
:104660000027404600F0E0FF3846DFE72DE9F04143
:1046700006460F464FF00008F748007810B10020BA
:10468000BDE8F08100F0CCFF8046F4480568006882
:1046900020B1F24800684068F0490860404600F0E8
:1046A000C3FF3DB300F0BCFF8046ED480468C4B1D1
:1046B00000680068EA490860404600F0B5FF66609F
:1046C00006EB8700A060E6602661A7820020E082FA
:1046D00002202870002028816C602846FFF7D2F95C
:1046E00008E0DE4800686860DC480560404600F08D
:1046F0009BFF00252846C3E72DE9F047044689467D
:1047000015464FF0000A2078022804D001202870B6
:104710002046BDE8F087D048007818B10F202870F7
:104720002046F6E700F07CFF8246A07A10B14FF0F9
:10473000010801E04FF00008B9F1000F03D0B9F112
:10474000010F45D11FE0B8F1000F15D16668C448CC
:1047500000683060C248066000202070BF480068D2
:10476000606000202081BD480460504600F05CFF7E
:1047700000202870002705E0504600F055FF492032
:10478000287027462BE005E0002304221946204626
:10479000FFF707F9A07A0028F6D16668B0480068EC
:1047A0003060AF48066000202070AC480068606050
:1047B00000202081A9480460504600F035FFB8F180
:1047C000010F01D1FEF791FF00202870002706E0BD
:1047D000504600F029FF07202870274600BF00BF81
:1047E000384696E770B50546002600F019FF0646E4
:1047F0006C686068E060606820610020E08230469C
:1048000000F012FF002070BD2DE9F04707468846F2
:1048100015464FF000093878022804D0012028708E
:104820000020BDE8F0878C48007818B1022028707D
:104830000020F6E78B48007818B10D202870002082
:10484000EFE700F0EDFE81467C68E08A98B12169CF
:10485000081D20610E68E08A401EE082A168206980
:10486000884201D160682061484600F0DDFE0020EA
:1048700028703046D5E77C48006890F8300040F05A
:1048800004007949096881F83000002076490968F8
:1048900081F8310074480068C0F82C803846FFF772
:1048A000B9F8484600F0C0FEFEF71FFF00F0B8FE62
:1048B00081466D48006890F8310020B101280DD084
:1048C00002280AD105E068480068066A00202870BE
:1048D0000DE000260E20287009E000BF394662482E
:1048E0000068FFF749F800260A20287000BF00BFC3
:1048F00000205D49096881F830005B49096881F84A
:10490000310059490968C861574909680862484631
:1049100000F08AFE304684E72DE9F04104460F4658
:1049200015464FF000082078022804D00120287096
:104930000020BDE8F08100F073FE8046A07A20B32D
:1049400000267FB1012F0CD107E0022304220021B1
:104950002046FFF726F8701CC6B2A07A0028F4D1D2
:1049600009E000BF0223042200212046FFF719F8C6
:10497000701CC6B200BF00BF404600F055FEFEF7F7
:10498000B4FE0E2028703046D3E7404600F04CFEBF
:104990000020287000BFCCE72DE9F04105460E4607
:1049A00000272878022802D00120BDE8F08100F01D
:1049B00037FE0746A87A60B1002304223146284614
:1049C000FEF7EFFF384600F02FFEFEF78EFE0020C8
:1049D000EBE76C68E08AA18A884204DB384600F085
:1049E00023FE1E20E1E7E168081DE0600E60E08A1A
:1049F000401CE082D4E90210884201D16068E06086
:104A0000384600F011FE0020CFE72DE9F0410546C1
:104A10000E4600272878022802D00120BDE8F08148
:104A200000F0FEFD0746A87A60B10023042231465B
:104A30002846FEF7B6FF384600F0F6FDFEF755FEB5
:104A40000020EBE76C68E08AA18A88420EDB3846DA
:104A500000F0EAFD1E20E1E7910000207C0000202C
:104A6000BC00002092000020A400002061682069A2
:104A7000884201D1A06820612069001F206120695F
:104A80000660E08A401CE082384600F0CDFD002040
:104A9000C4E72DE9F04105460F4616464FF00008E1
:104AA0002878022802D00120BDE8F08100F0B8FD8E
:104AB0008046A87AE8B106F0010050B105E0002375
:104AC000042239462846FEF76CFFA87A0028F6D162
:104AD00005E00023042239462846FEF762FF4046DF
:104AE00000F0A2FD06F0040008B9FEF7FEFD00206C
:104AF000DAE76C68E08AA18A884204DB404600F06D
:104B000093FD1E20D0E706F0020058B161682069CD
:104B1000884201D1A06820612069001F20612069BE
:104B2000076009E0E168081DE0600F60D4E9021049
:104B3000884201D16068E060E08A401CE082404623
:104B400000F072FD0020AFE72DE9F04705460C4666
:104B50004FF0000A2878022802D00120BDE8F08733
:104B600000F05EFD8246A87A207405F10B0804F17E
:104B70000809002705E018F8010B09F8010B781C5B
:104B8000C7B2082FF7D36E68F08A18B13069006891
:104B9000206001E000202060F08AA080B08AE080E0
:104BA000504600F041FD0020D8E72DE9F041782182
:104BB0001048FEF787FC00240DE0601C86B204EB71
:104BC00044000C4901EBC00506EB460001EBC007B1
:104BD0002F60601C84B2042CEFD304EB4400054921
:104BE00001EBC00500202860084603490860BDE8C5
:104BF000F0810000B0240020BC0000202DE9FF5F00
:104C0000814688460020009000F00AFD0090F94897
:104C100050F8280030B1009800F006FD282004B0BC
:104C2000BDE8F09FB9F1FF0F03D1F348006890F899
:104C30003290F04850F8294024B9009800F0F4FC74
:104C40002920ECE7012C04D1009800F0EDFC432072
:104C5000E5E74FEAE80708F0070003900120B840B5
:104C600000F0FF0A01210398814001F0FF0B0020B2
:104C7000E04941F82900084640F8284014F8346F0C
:104C8000A07802906078343C0190DC48815D019806
:104C90000140D1B1D948805D01998843D7498855F1
:104CA0000846805D28B9D648007802998843D449DF
:104CB0000870D348007840EA0A00D1490870CF480C
:104CC000C05D40EA0B00CD49C855E569D5B105F195
:104CD0000B00805D0199884305F10B01885508465A
:104CE000805D18B9A87A02998843A872A87A40EA28
:104CF0000A00A87205F10B00C05D40EA0B0005F147
:104D00000B01C85584F8328084F83470039884F815
:104D1000330084F836A084F835B0009800F084FCA5
:104D2000B8480078012801D1FEF7DFFC002076E7C3
:104D30002DE9FE4F06460F4690461C464FF00009EF
:104D400000F06EFC8146B048007828B1484600F07B
:104D50006BFC3C20BDE8FE8FA64850F8240060BBE9
:104D60000120A44941F82400484600F05DFC0023DE
:104D700042463946304600F001FC82460020009051
:104D8000019003460246514602902046FEF79CFEE3
:104D9000054635B99B48007801280CD1FEF7A5FCE3
:104DA00009E000F03DFC81460020924941F82400D2
:104DB000484600F039FC2846CCE7484600F034FC71
:104DC0002820C7E702F0010343B102F002032BB130
:104DD00002E0491E002308C00029FAD170472DE9DE
:104DE000F04F85B081468A4693461C46DDE90F7830
:104DF000129D0020039000F013FC0390824800787D
:104E000030B1039800F010FC3C2005B0BDE8F08FF5
:104E1000784850F8240088BB0120764941F82400E6
:104E2000039800F001FC2A4641463846FFF7CAFFC6
:104E30002B465A465146484600F0A0FB0490119874
:104E4000CDE9008002953A4620460E9B0499FEF774
:104E50003BFE064636B96B48007801280CD1FEF7B8
:104E600044FC09E000F0DCFB03900020614941F8BC
:104E70002400039800F0D8FB3046C6E7FFE703980C
:104E800000F0D2FB2820C0E72DE9F04105460027BD
:104E90005D48007810B14020BDE8F0813F2D01D180
:104EA0003E20F9E700F0BCFB0746FF2D03D1524836
:104EB000006890F832504F4850F8254024B93846E1
:104EC00000F0B2FB4320E7E7012C04D1384600F0A4
:104ED000ABFB3D20E0E714F8340F4849085C6178EB
:104EE00088432178454A505414F834091146085C27
:104EF00030B994F836104248007888434049087029
:104F0000E06918B12046E169FEF736FD666A16B120
:104F10003046FEF730FF0020E06284F8300084F86D
:104F200031003A480078FF2804D238480078401C05
:104F300036490870384600F077FBFEF71CFD00F09C
:104F40006FFB07463148007820B130480078401E9A
:104F50002E490870204600F00EFB2D480078401EB8
:104F60002B4908700020234941F82500A06930B979
:104F700000206169886127496069086005E0D4E91B
:104F800005014861D4E90510886123480068606123
:104F90002148046021A0E064384600F045FB194830
:104FA0000078012801D1FEF7A0FB002074E72DE96D
:104FB000F041044600273F2C02D13E20BDE8F0819D
:104FC000FF2C0BD100F02CFB07460B48006890F833
:104FD0003760384600F028FB3046EFE700F020FB52
:104FE0000746044850F82450D5B9384600F01CFB59
:104FF0004320E3E7481F0020A40000209600002083
:10500000950000209E0000209100002092000020CA
:105010009F000020B0000020A80000203F000000FA
:10502000012D04D1384600F0FFFA3D20C6E73F20AD
:1050300085F83700384600F0F7FA0020BEE72DE982
:10504000F04706460F4614464FF00008D648007851
:1050500020B1112020700020BDE8F08700F0E0FAB8
:105060008046FF2E03D1D148006890F83260D048C6
:1050700050F8265035B9404600F0D6FA432020704B
:105080000020E9E7012D06D1404600F0CDFA43208B
:1050900020700020E0E7E86C38603868FEF70AFD11
:1050A0008146404600F0C0FA002020704846D3E711
:1050B0002DE9F04106460F4614464FF00008BA4865
:1050C000007818B112202070BDE8F08100F0A8FA35
:1050D0008046FF2E03D1B548006890F83260B4488E
:1050E00050F826502DB9404600F09EFA432020701B
:1050F000EAE7012D05D1404600F096FA43202070E2
:10510000E2E7EF64404600F08FFA0020207000BF15
:10511000DAE770B50546002600F082FA0646A44894
:1051200050F8254024B9304600F07EFA462070BD84
:10513000012C04D1304600F077FA4320F7E794F8C9
:10514000300000F0080060B314F8300F00F0F700F2
:10515000207014F83009F8B9E06AC8B93434A0787E
:105160009449097808439349087020789249085C6B
:105170006178084314F834198F4A5054304600F0CF
:1051800053FA8E480078012809D1FEF7AEFA06E0FE
:10519000304600F049FA02E0304600F045FA0020BF
:1051A000C5E7304600F040FA4420C0E72DE9F0475B
:1051B00007460D464FF0000A00202860686000F0A6
:1051C0002FFA8246FF2F03D17848006890F832709A
:1051D000774850F827402CB9504600F025FA432074
:1051E000BDE8F087012C04D1504600F01DFA4320A1
:1051F000F6E7207C00F0010020B9504600F014FAD8
:105200004520EDE70026D4F80C90D4F808805046ED
:1052100000F00AFA00E0761C58F8041B0029FAD0C6
:10522000B0002860A9EB0600800068600020D7E786
:105230002DE9F04105464FF0000800F0F1F98046F5
:10524000FF2D05D15948006890F83250012608E03A
:105250005648006890F83200A84201D1012600E0CB
:105260000026534850F825402CB9404600F0DCF9A0
:105270004820BDE8F081012C04D1404600F0D4F96B
:105280004320F6E794F834704B48C05D94F835102D
:1052900088434949C8550846C05D30B994F836106E
:1052A0004448007888434349087094F8300040F03F
:1052B000080084F83000404600F0B6F9012E01D114
:1052C000FEF713FA0020D4E72DE9F04105460E461B
:1052D000002700F0A5F90746FF2D03D133480068E9
:1052E00090F83250324850F825402CB9384600F03A
:1052F0009BF92920BDE8F081012C04D1384600F04B
:1053000093F94320F6E7542221463046FEF7C8FBC6
:10531000384600F089F90020ECE72DE9F047044613
:105320000E4617464FF0000900F07AF98146FF2C2F
:1053300002D11E48056802E01D4850F8245005F1CE
:10534000500050F82680484600F06EF90020387072
:105350004046BDE8F0872DE9F04704460E46174663
:1053600098464FF0000900F05BF98146FF2C02D10E
:105370000E48056802E00E4850F8245005F1500030
:1053800040F82670484600F04FF9002088F80000E9
:10539000BDE8F08710B50548006800F03FF9FF2030
:1053A000FFF772FD10BD000091000020A400002056
:1053B000481F002095000020960000209E0000203D
:1053C00070B5054600266348007800B170BD62489C
:1053D000007800B1FAE71DB300F022F906465F48F5
:1053E000006890F834405E48005D5C49096891F8B7
:1053F000351088435A4908550846005D40B957485A
:10540000006890F83610574800788843554908706E
:1054100052480068C562304600F006F9FEF765F9AB
:1054200000BFD3E72DE9F04104460D4616461F465E
:105430004848007810B15520BDE8F0814648007812
:1054400008B13220F8E7B81CC82148434FF47A71FC
:10545000B0FBF1F14FF461606043C5EB051200EB66
:105460008200304400EBC00202EB001001EBC008E8
:105470004046FFF7A5FF0020DEE770B50546002691
:105480003F2D01D32A2070BD00F0CAF806463648E9
:1054900050F8254024B9304600F0C6F84320F2E722
:1054A000012C04D1304600F0BFF84320EBE7E06A5E
:1054B00020B9304600F0B8F85020E4E70020E06260
:1054C00094F8300000F0370040B114F8300F20F0AD
:1054D0003700207001206070303C02E0002084F82A
:1054E000310094F8300000F00800A8B93434A078F6
:1054F0001C49097808431B49087020781849085C42
:105500006178084314F83419154A5054304600F0B5
:105510008BF8FEF7EAF802E0304600F085F800204C
:10552000B1E770B5002500F07BF805460F48046828
:10553000284600F079F8204670BD70B50446002575
:1055400000F06EF8054609480460284600F06CF843
:1055500070BD00009100002092000020A4000020F7
:105560009600002095000020481F0020C000002069
:1055700070477047704770477047704770B5044672
:1055800010464FF080750560051F28462C606FF0AF
:105590000106051F28462E604FF01236051F2846CB
:1055A0002E604FF00336051F28462E604FF002365E
:1055B000051F28462E607610051F28462E60051F01
:1055C000284629604FF01136051F28462E604FF0FF
:1055D0001036051F28462E604FF00936051F284655
:1055E0002E604FF00836051F28462E604FF0073614
:1055F000051F28462E604FF00636051F28462E60F0
:105600004FF00536051F28462E604FF00436051F63
:1056100028462E6070BD7047704770477047000085
:10562000EFF3108072B6704780F310887047204CFB
:10563000204D25604FF0000484F309881E4C4FF084
:10564000010525701D4C4FF08055256062B6FEE7C0
:1056500030B41A4C4FF08055256030BC704730B4E0
:10566000164C4FF08055256030BC704700BF72B6B5
:10567000EFF3098028B1203880E8F00F104909685D
:10568000086000B50F4880475DF804EB0E480F49ED
:105690000A7802700A480E490A680260106890E8A9
:1056A000F00F203080F309884EF0040E62B6704788
:1056B00020ED00E00000FFFF9E00002004ED00E070
:1056C000A40000201756000893000020940000203A
:1056D000AC000020704700000FB4044910B503AAC5
:1056E000029800F06FFB10BC5DF814FB5C0000201A
:1056F00070B5044685690068C10601D5302600E012
:105700002026C00707D070BDD4E90121304690475C
:10571000206A401C20626D1EF6D570BD70B504462F
:1057200085690078C00707D170BDD4E90121202028
:105730009047206A401C20626D1EF6D570BD0000A7
:105740002DE9F0410646002410687529314616A55A
:1057500010D0AFF30080002802DA404213A507E022
:1057600031688A0701D512A502E0490704D511A5C1
:10577000012401E0AFF3008000210A2206F1240792
:1057800009E0B0FBF2FCB0FBF2F302FB1C0030308E
:1057900078541846491C0028F3D123462A4630463F
:1057A000BDE8F04100F0A8B8000000002D000000A6
:1057B0002B000000200000002DE9F05F8946044620
:1057C0004FF0000ADFF824B1FB44C0F820A02046C7
:1057D000E168884700287DD0252806D0D4E901213A
:1057E0009047206A401C2062F1E700255F46204672
:1057F000E16888472028064607DB312E05D2B81914
:1058000010F8200C08B10543F1E7A80701D525F0F1
:105810000405C4F81CA00027C4F818A02A2E09D03B
:10582000304601F036F838B304EB8708303EC8F84C
:10583000186019E059F8041B204604EB87029161B7
:10584000E1688847012F064618D1E069002820DA70
:1058500025F020051DE0D8F8180000EB800006EBCD
:1058600040003038C8F818002046E16888470646EE
:1058700001F00FF80028EED1012F0AD02E2E08D10A
:105880002046E16888477F1C0646022F45F0200528
:10589000C4DBA069002803DA404245F00105A0619D
:1058A000E80701D025F01005A6B1A6F1410019289E
:1058B00002D8203645F400654A4631462046256028
:1058C0004D46FAF76FFC60B1012807D0ED1D25F0B9
:1058D000070000E007E000F1080978E705F1040996
:1058E00075E730467AE7206ABDE8F09FE61B0000C6
:1058F00070477047704770472DE9F0470D4699464D
:105900009246044600F124080168880604D5E0693F
:1059100021F01001216000E00120A84201DD471BB9
:1059200000E00027A1697A1902EB0900081AA061BA
:105930002078C00602D42046FFF7DAFE002608E0F1
:10594000D4E901211AF806009047206A401C761C11
:1059500020624E45F4DB2078C0060AD52046FFF7CA
:10596000C7FE06E0D4E9012130209047206A401CA0
:105970002062381EA7F10107F4DC07E0D4E9012119
:1059800018F805009047206A401C2062281EA5F1E7
:105990000105F3DC2046FFF7C1FE2078000602D5A2
:1059A0000220BDE8F0870120FBE770472DE9FF4F9B
:1059B0000C461E464FF0FF378BB0D2E90001DDF8F0
:1059C00060800A908A46C1F30A5505B93D46002118
:1059D00008464FF00000BAF1000F00F4400005DA6D
:1059E00000EB80004FF4400101EA50004FEA90596B
:1059F000B9F1010F00DDB9460A9850EA4A000ED00D
:105A000044F61050A5F2FF3545432F14B8F1000FAE
:105A10001ED07542291E1EDDC9F100021CE0B8F13E
:105A2000010F4FF0000001D0302103E0F24305E008
:105A30002154401CB042FBDB30460022002121549F
:105A40000B99C1F80880C1E900200FB0BDE8F08FC4
:105A5000BD1B6D1CDEE74A4600DA694206A800F06D
:105A600065FA06AB93E8070003AB83E807005046EE
:105A70000A9900F03FFB8DE80700A0F500501F38A1
:105A800000900398002D09DD42F21F014A460844A8
:105A900003A90390684600F09EFD08E0A0F50050C1
:105AA0004A461F3803A90390684600F0A8FD8DE818
:105AB00007000004000C03D04FF0FF30410800E065
:105AC0001046B8F1000F03D00022009215461EE0E8
:105AD000751E05D400F08CF9303262556D1EF9D573
