:020000040800F2
:10000000083D00200D300008650C0008670C000852
:100010006B0C00086F0C0008730C00080000000057
:10002000000000000000000000000000770C000845
:10003000790C0008000000005F750008A52D00087D
:100040002730000827300008273000082730000834
:100050002730000827300008273000082730000824
:100060002730000827300008273000082730000814
:100070002730000827300008273000082730000804
:1000800027300008273000082730000827300008F4
:1000900027300008273000082730000827300008E4
:1000A00027300008273000082730000827300008D4
:1000B000273000089F230008273000082730000859
:1000C00027300008273000082730000827300008B4
:1000D00027300008792F0008273000082730000853
:1000E0002730000827300008273000082730000894
:1000F0002730000827300008273000082730000884
:100100002730000827300008273000082730000873
:100110002730000827300008273000082730000863
:100120002730000827300008273000082730000853
:1001300000F002F800F04AF80AA090E8000C8244AF
:100140008344AAF10107DA4501D100F03FF8AFF28C
:10015000090EBAE80F0013F0010F18BFFB1A43F0A5
:100160000103184718A9000038A90000103A24BF5D
:1001700078C878C1FAD8520724BF30C830C144BF0C
:1001800004680C607047000000230024002500264E
:10019000103A28BF78C1FBD8520728BF30C148BFEA
:1001A0000B60704766290AF01A82642907F04082C2
:1001B000002070471FB507F0C1FD0400002000219A
:1001C00009F09EFBE0601FBD10B510BD07F0D2FE28
:1001D0001146FFF7EFFF00F0D8FC07F0F0FE03B484
:1001E000FFF7F2FF03BC02F067FE0000002405E009
:1001F000204601F0DCF8052002F031FEF8E796B069
:1002000000274FF00208002661E015AA0021FA48F5
:10021000006806F071FA05469DF85400002856D192
:1002200000240BE001A800EB041005EB041292E897
:100230000A10D26880E80A10C260641C052CF1DB49
:10024000052101A800F0AAFFEC48807F10B1012829
:1002500004D101E0464602E0002600E000BF00BFF6
:1002600007F056F90746E6480078082804DAE4481B
:100270000078401CE2490870E248007807280FD156
:10028000E148E049097800EB011101A800EB061CE8
:100290009CE80D10A1E80D100020DA49087013E069
:1002A000D84801780078401CD64A1070D64800EB38
:1002B000011201A800EB061CDCE90030DCE9021C9D
:1002C000C2E9021CC2E90030384607F025F99CE774
:1002D000ADF5F56D0020CDF8A00714210DA807F0AD
:1002E0007FFA142108A807F07BFA0020079000BFCE
:1002F00000BF401EC5490860EFE10DF5AC6002F09B
:10030000C4F98146DDF870A5DDF860B50024DEE1B2
:100310000DF5AC6000EB44104069A0EB0A000DF550
:10032000AC6101EB44114968A1EB0B01B84A1268BA
:1003300001FB02050DF5AC6000EB44108069A0EBF9
:100340000A000DF5AC6101EB44118968A1EB0B01CA
:10035000AF4A126801FB02080DF5AC6000EB4410D7
:10036000C1690DF5AC6000EB44104069081A0DF549
:10037000AC6101EB4411C9680DF5AC6202EB4412AB
:100380005268891AA24A126801FB020607F0C0F8F7
:10039000CDF8A007284609F03AFD00229D4BCDE993
:1003A000000109F09BFD00229B4BCDE9020109F001
:1003B00079FB02460B46CDE90401214697A007F0E0
:1003C00003F9DDF8A00707F0A7F800BF98480088F8
:1003D000B0F5966F05DD9748854202DA0020069059
:1003E00012E042F21070864201DC002E02DC002096
:1003F000069009E09048854201DC002D02DC0020D7
:10040000069001E0012006907C48807F10B1012811
:100410001ED10DE086480088B0F5966F07DC87484E
:10042000854204DAB6F5C86F01DD002006900FE0C2
:1004300040F24C40864202DA0020069007E07D48F8
:10044000854204DAB6F5FA6F01DD0020069000BFA0
:1004500000BFB8F1000F12DD774880450FDA74480D
:100460000088B0F5966F0ADC07F052F8CDF8A007C7
:100470006648C0F80080DDF8A00707F04DF8069840
:1004800000B922E1284609F0C2FC0022614BCDE907
:10049000000109F023FD00225F4BCDE9020109F0C4
:1004A00001FBCDE9040109F085FC074600962946C9
:1004B00012A8DDF85835DDF85C2501F003F84F4847
:1004C000807F00285DD1B7F5167F5AD90C9712A806
:1004D0000FC8CDE90A23CDE90801119A0C99881AB1
:1004E000002801DB014600E04142052940DA07F01F
:1004F0000FF8CDF8A00742480078082805DA4048F0
:100500000078401C3E49087002E000203C49087019
:100510003C48007807280DD13B483A49097800EB60
:10052000011008A991E80E10A0E80E10002035492E
:1005300008700DE0334801780078401C314A107093
:10054000314800EB011008A991E80E10A0E80E1048
:100550003BA007F039F8DDF8A00706F0DDFF0C98A6
:10056000119008A80FC8CDE90F23CDE90D01ABE02C
:100570000C98119008A80FC8CDE90F23CDE90D0103
:10058000A2E01E48807F012835D1502F33D90C9727
:1005900012A80FC8CDE90A23CDE90801119A0C99D8
:1005A000881A002801DB014600E0414203296DDA88
:1005B00006F0AEFFCDF8A00711480078082805DA4C
:1005C0000F480078401C0E49087002E000200C49DA
:1005D00008700C48007807283AD10B480949097877
:1005E00000EB011008A991E80E10A0E80E10002001
:1005F000044908703AE052E02C000020C82A00208C
:100600003100002030000020C828002038000020E1
:10061000F0A600080000F83F0088C3407265735FD1
:10062000636E745B25645D3D252E34662E0D0A00D5
:1006300034000020A08601008096980010EB09008D
:1006400077616C6C6F7665723630302E0A00000070
:10065000FB4801780078401CF94A1070F94800EB1B
:10066000011008A991E80E10A0E80E10F6A006F0FF
:10067000ABFFDDF8A00706F04FFF0C98119008A81B
:100680000FC8CDE90F23CDE90D011DE00C981190A5
:1006900008A80FC8CDE90F23CDE90D0114E0079894
:1006A000411C079116A901EB001012A991E80E1048
:1006B000A0E80E100798052806D10020079016A97B
:1006C000E448006806F0E0F800BF601CC4B24C4586
:1006D000FFF61EAE0A2002F0C2FB0EE68AB0002032
:1006E0000990834682460490DB490870082006F092
:1006F00017FD0020D949087006F00AFF0990D84874
:10070000D649097830F81100D64908800846008893
:1007100002F04FFA099806F0FFFE4FF4FA7002F06B
:100720009EFBF5E1D048007801280AD106F0F0FEE2
:100730000990CC480188CDA006F046FF099806F044
:10074000EBFE06F0E5FE0990CA480078002875D057
:10075000C8480178BB4800F021FDC649087800EB85
:10076000D0714910B74A02EB0111D1F800B0C1496C
:10077000087800EBD071491002EB0111D1F80CA000
:10078000BC49087800EBD071491002EB01164ECE3F
:10079000CDE90736CDE90512B748834509D240F6C1
:1007A0009800824505D9B548807F10B90020049093
:1007B0003DE041F28830824537D9584609F03EFB8A
:1007C00080460022AE4B09F089FB06460022AD4B65
:1007D00009F068F90022AC4BCDE9000109F042FBB9
:1007E00005D2A648807F10B9002004901FE058462B
:1007F00009F024FB06460022A14B09F06FFB80465E
:100800000022A04B09F04EF90022A04BCDE90001D7
:1008100009F028FB06D29948807F012802D10020E8
:10082000049004E00120049001E0012004900020E5
:10083000904908708249087002E0FFE700200490A8
:10084000099806F069FE049800287DD09048007849
:1008500010B901208E49087000208E490870584652
:1008600009F0ECFA06460022854B09F037FB80467A
:100870000022844B09F016F9874A03C2864830C823
:100880007948007801280AD106F042FE09902246F4
:100890002B4682A006F098FE099806F03DFE7748A8
:1008A000807F10B1012818D10BE06F480078012833
:1008B00002D17DA006F088FE774905A801F071F904
:1008C0000CE069480078012802D179A006F07CFE8E
:1008D000714905A801F065F900E000BF00BF62485A
:1008E0000078012810D106F013FE099072A006F0DE
:1008F0006BFE6948CDF800A00CC870A006F064FE3D
:10090000099806F009FEFFE006F002FE0990524643
:100910006149684600F000FBDDE90001CDE9020114
:1009200000BF40216A4803F029F90028F9D09DF85A
:100930000810674803F0B4F800BF4021644803F092
:100940001DF90028F9D000E014E09DF80910604876
:1009500003F0A6F800BF40215D4803F00FF900281E
:10096000F9D09DF80A105A4803F09AF8099806F051
:10097000D3FDC9E03C48007830BB06F0C9FD0990C2
:1009800000BF4021524803F0F9F80028F9D0FF21B8
:100990004F4803F085F800BF40214D4803F0EEF8C2
:1009A0000028F9D0FF214A4803F07AF800BF40211F
:1009B000474803F0E3F80028F9D0FF21444803F04A
:1009C0006FF8099806F0A8FD31480078F0B923487F
:1009D00000780C2805DA21480078401C1F4908706F
:1009E00002E001202A49087006F092FD09901C4897
:1009F0001A49097830F811001A4908800846008819
:100A000002F0D7F8099806F087FD7DE01B48807F4B
:100A100001280BD100222F4B1F4903C909F022FAEC
:100A200004D240F24C400F4908806DE0194800782C
:100A3000052851DA17480078401C1649087063E011
:100A400030000020C82800206C696E656F766572E2
:100A50002E0A00002C000020320000202B00002075
:100A6000D4A60008340000202A0000200A0A713AA7
:100A700025640A0031000020A0860100C82A002059
:100A80000000F83F0088C340000079400000594052
:100A90002800002029000020180000204F52473A6B
:100AA000252E32660900000077616C6C0A00000098
:100AB0006C696E650A0000004D563A00643A252EB6
:100AC00032662009092065743A25640A0000000096
:100AD00000380140008041400020504908705049D2
:100AE00008705049087006F013FD09904E484D49B2
:100AF000097830F811004D4908800846008802F056
:100B000058F8099806F008FD4FF4FA7002F0A7F9BA
:100B100008E670B50446002501204549086002F04A
:100B20009EF900204349C1F8900101204249087014
:100B300000BF0102414805F011FD4149086006F07F
:100B4000E7FC054605233F4A0021AFF26F4006F05F
:100B500067F806233C4A0021AFF68B0006F060F8E8
:100B600007233A4A0021AFF6691006F059F8082326
:100B7000374A0021AFF68B1006F052F80A2006F033
:100B8000CFFA284606F0C8FC70BD08B54FF4A06047
:100B900002F05CFA02F012F94FF4165002F09BF9E1
:100BA00000F083F901F092FE02F0B2F801F094FF38
:100BB00002F012F802F025F801F0E6FD01F06CFCFD
:100BC00001F08FFC234800F06BFD234801235022E5
:100BD000462100903C2000F09AFD2048002350223E
:100BE000462100903C2000F092FD0121084600F0D3
:100BF00021FF012001F0D1FF0C48008801F0D9FF4E
:100C000004F067FC0A23164A0021AFF2F90006F04F
:100C100007F804F085FD002008BD00002800002032
:100C2000290000202B000020D4A60008340000205A
:100C3000900121420000214232000020C8240020FF
:100C40002C000020C4090020C4210020C42300205F
:100C5000C4240020C82A0020051D00084D1E0008DD
:100C6000C4010020704700BFFEE700BFFEE700BFE1
:100C7000FEE700BFFEE77047704700000CB500209C
:100C8000019000906C48006840F480306A49086028
:100C900000BF6948006800F4003000900198401CD3
:100CA0000190009818B90198B0F5A06FF1D1624891
:100CB000006800F4003010B10120009001E0002035
:100CC00000900098012843D15C48006840F0100073
:100CD0005A4908600846006820F00300086008468A
:100CE000006840F00200086053484068524948607C
:100CF0000846406848600846406840F480604860A4
:100D00000846406820F47C1048600846406840F47B
:100D1000E81048600846006840F08070086000BF36
:100D20004548006800F000700028F9D0424840684B
:100D300020F00300404948600846406840F0020047
:100D4000486000BF3C48406800F00C000828F9D11A
:100D50000CBD10B5FFF792FF10BD10B53648006806
:100D600040F00100344908600846406834490840B2
:100D70003149486008460068324908402E490860F9
:100D80000846006820F4802008600846406820F487
:100D9000FE0048604FF41F008860FFF7DAFF4FF055
:100DA00000602949086010BD10B500210020002214
:100DB000214B5B6803F00C0121B1042906D00829FE
:100DC00028D107E0214B224C236027E01F4B204C09
:100DD000236023E0184B5B6803F47010164B5B68CC
:100DE00003F48032022303EB904022B9194B4343B2
:100DF000174C23600DE0104B5B6803F4003323B104
:100E0000144B4343124C236003E0104B4343104CFC
:100E1000236003E00D4B0E4C236000BF00BF064B68
:100E20005B68C3F303130C4CE15C094B1B68CB40BC
:100E3000074C236010BD000000100240002002405B
:100E40000000FFF8FFFFF6FE08ED00E000127A0058
:100E50000000002000093D00040000200021FE48A1
:100E6000008802281FDDFD48405CCD2819D1FB4ACF
:100E7000481C105C4F2810D1881C105C112803D12D
:100E80000120F74A907707E0F44A881C105C332869
:100E900002D10020F24A907700E000BF00BF00209E
:100EA0007047481C81B20120FAE710B5ED48007880
:100EB00001280CD10121EC4802F029FA012802D1C5
:100EC000E749887708E00020E549887704E000BF1B
:100ED000FFF7C4FF0028FBD110BD2DE9F047044601
:100EE0004FF00009A07808F0A9FF07460022DF4B69
:100EF00008F0D8FD05460E466078217800EB012009
:100F00001FFA80F9484608F099FF07462A463346FB
:100F100008F00CFDBDE8F0872DE9F04F87B00646DC
:100F20000C469146D4E90021104608F043FF0546DF
:100F3000280A8DF81000E8B28DF81100284608F054
:100F40007DFF8246D4E900733A4609F0FBF800229F
:100F5000C64BCDE9000108F0C1FFCDE9020108F060
:100F600029FFC0B28DF81200CDF81490DDE904011C
:100F7000C6E9000107B0BDE8F08F014600200A78FD
:100F8000104400024A78104400028A7810447047E6
:100F90002DE9F0410446E0B208F050FF0746002278
:100FA000B24B08F07FFD05460E46200A08F046FFCA
:100FB00007462A46334608F0B9FC05460E46284641
:100FC0003146BDE8F0817FB50446002221466846DF
:100FD000FFF7A2FFDDE90001CDE9020102A8FFF75A
:100FE000CCFF0546284604B070BD70B50446A07815
:100FF000642100FB01F56078237800EB0321E817FA
:1010000005EB106002129AA006F0DEFA70BD70B512
:1010100004462046FFF7BCFF05460E462A463346E7
:1010200096A006F0D1FA70BD7CB5034653F8314066
:101030002FE000E0521E914203DA53F83200A04242
:10104000F8D203EBC10521CDCDE9000503EBC100CA
:1010500003EBC20660CE60C003EBC200DDE90056C0
:1010600060C000E0491C914203DA53F83100A0420D
:10107000F8D903EBC10521CDCDE9000503EBC10093
:1010800003EBC20660CE60C003EBC200DDE9005690
:1010900060C09142CDDB08467CBDF0B507460D46E9
:1010A0001646B5420FDA324629463846FFF7BCFFEE
:1010B0000446621E29463846FFF7EFFF3246611CA0
:1010C0003846FFF7EAFFF0BD30B505460C46621E14
:1010D00000212846FFF7E1FF30BDFFB5034603EBD3
:1010E000011004683EE000E0521E914204DA03EB76
:1010F00002100068A042F7D203EB0117D7E90065A0
:10110000D7E90207CDE90207CDE9006503EB01103D
:1011100003EB021797E86010FF6880E86010C76073
:1011200003EB02109DE8E010A0E8E01000E0491C8D
:10113000914204DA03EB01100068A042F7D903EBF7
:101140000117E1CF8DE8E10003EB011003EB021C76
:101150009CE8E010A0E8E01003EB02109DE8E0102E
:10116000A0E8E0109142BEDB084604B0F0BDF0B547
:1011700007460D461646B5420FDA3246294638462E
:10118000FFF7ABFF0446621E29463846FFF7EFFF24
:101190003246611C3846FFF7EAFFF0BD30B5054620
:1011A0000C46621E00212846FFF7E1FF30BD2DE905
:1011B000F04F97B08246894600210D460E46282101
:1011C0000CA806F00DFB0024A34600200B9000BFE6
:1011D00028E00AEB0411086808F030FE07460022F8
:1011E000284B08F07BFE0022274BCDE9080108F0D0
:1011F00059FC0CAA02EBC40203C2584608F007FED1
:10120000CDE908010CA800EBC40103C9CDE9060132
:10121000DDE9082308F08AFB074608F09BFD8346BA
:10122000601CC4B24C45D4DB9BFBF9F00B9000244E
:1012300045E0484608F002FECDE906010B9808F0AB
:10124000E6FDCDE900010CA800EBC400D0E9007375
:101250003A4600981AE0000064000020E82A0020C6
:10126000C82A00202A000020000801400000704029
:1012700025642E253032642000000000252E3266C1
:10128000200000000000F83F0088C34008F05AFF2B
:1012900000224FF08043CDE9020107F0DFFDCDE9E8
:1012A0000401DDE9062308F0FDFB2A463346CDE9BB
:1012B000080108F03BFB05460E46601CC4B24C45D5
:1012C000B7DB2846314617B0BDE8F08F2DE9F04F67
:1012D00089B004460D46D7480890002213462046A0
:1012E000294608F0BFFD01D285F000450022D24B0F
:1012F0002046294608F01AFB0022CF4BCDE9040115
:101300002046294609F010F8CDE90201DDE9042361
:1013100008F0C8FB074688463A46434638464146E9
:1013200008F0DCFDCDE90601089E700000F1010B1C
:10133000584608F06CFD02460B46CDE9040100203A
:10134000BD4908F0AFFB81468A46089E1DE0ABF11F
:10135000020B4A465346DDE9060108F0BFFDCDE920
:101360000401584608F053FD02460B46CDE9000142
:101370000020B14908F096FBCDE90201DDE9042324
:1013800008F0D4FA81468A46761E002EDFDC3A4603
:10139000434600204FF0804108F0A0FD4A465346E6
:1013A000CDE9040108F09AFD09B0BDE8F08F2DE900
:1013B000F0410446A148008808F040FD054600229F
:1013C0009F4B08F06FFB07464FF066329D4B08F0CD
:1013D00085FD9D4A03C200229C4B9B4903C908F02E
:1013E00041FD08D298480CC80020984908F09CFF9D
:1013F000974A03C20EE00022944B934903C908F0B8
:101400006BFE07D80022914B8F4903C908F08CFF6F
:101410008F4A03C24FF066328E4B8B4903C908F0E6
:1014200021FD4DD28C480088B0F5FA6F04DD4FF4F1
:10143000FA608949088039E000227F4B844903C95A
:1014400008F04AFE05D2844800880A3082490880A4
:101450002CE0824A824B7E4903C908F03DFE05D24A
:101460007D48008808307C4908801FE04FF0333207
:101470007C4B774903C908F02FFE05D276480088D7
:10148000001D7549088011E0744A774B704903C903
:1014900008F022FE05D270480088801C6E49088042
:1014A00004E06D480088401C6B49088006F030F865
:1014B00004466948008801F07CFB204606F02CF8C1
:1014C000BDE8F08110B5029C016042608360C46099
:1014D00010BD2DE9F04F8BB081460C4640F24C41D7
:1014E0002068884230D92068B0F5FA6F2CD2206885
:1014F00008F0A4FC82465D4A5D4B08F0EFFC002238
:101500005C4BCDE9000108F011FACDE90201FFF7CB
:10151000DDFE0746584A594B08F0E0FCCDE90401CE
:10152000D9E900733A4608F00DFE554A554BCDE90E
:10153000060108F0FBF9494A534BCDE9080108F0D0
:10154000F3FE05460E462DE02068B0F5FA6F1FD376
:10155000206808F073FC4D4A4D4BCDE9060108F0B8
:10156000BDFCCDE90801D9E90001CDE90601DDE9BD
:10157000082308F0D9FE0746464A474B08F0D4FE38
:101580008246364A404B08F0CFFE05460E4609E03B
:101590004FF03332414BD9E90071384608F0C4FEB0
:1015A00005460E46284631460BB0BDE8F08F2DE9C2
:1015B000F04F05460C461646002200270021D4F8BD
:1015C00000E00120012119E004EB011CDCF800C05F
:1015D000ACEB0E0C9C4504D200F1010C0CF0FF00AA
:1015E0000BE0904204DD0246A1EB020C0CF0FF0779
:1015F00004EB011CDCF800E00120491CB142E3DBF4
:10160000904204DD0246A1EB020C0CF0FF0702EB56
:10161000470C0CEBDC784FEA680804EB081898E8F4
:10162000000ED8F80C8085E8000EC5F80C80BDE8E7
:10163000F08F0000A08601000000F03F580000205D
:101640000000B04066660A404000002000000840EC
:101650004800002066660640340000209A99999957
:101660009999E93F3333E33F9999D93F569FABAD01
:10167000D8DF25C00053C640696FF085C954EB3FE1
:10168000F4FDD478E92608409999C93F2D431CEB15
:10169000E2363A3F5DDC4603784B1040333303407B
:1016A00010B502460AB9012010BDFE480078012895
:1016B00001D10220F8E70120FA4C2070FA481060AE
:1016C000136801210BE001EB4100F74C04EB8000B3
:1016D000986001EB410004EB8003481CC1B2202953
:1016E000F1DB0020E0E7014609B901207047CA7824
:1016F00022B9EE488068ED4B9B699860012A04D1BD
:10170000EA484068E94B5B6998600020EEE72DE904
:10171000F04105460E4617461C46DDF81880E348A2
:10172000006810B90320BDE8F081E048006805704A
:10173000DE4800684670DD4800688770DB48006856
:10174000C470DA480068C0F80480F4B9D7488068EB
:1017500050B9D6480068D549886108460068886055
:1017600008460068086108E0D0480068CF498969E8
:101770008860CE480068CD498861CC4800688068A0
:10178000CA490860002089698860012C1ED1C748B9
:10179000406850B9C5480068C449486108460068B7
:1017A000486008460068C86008E0C0480068BF4953
:1017B00049698860BD480068BC494861BB48006809
:1017C0008068BA49086000204969886034B9B74820
:1017D000007F18B1B5498868FFF785FF012C06D155
:1017E000B248407F18B1B1494868FFF77CFF00203C
:1017F00099E7014609B901207047CA781AB9002053
:10180000AA4B9B699860012A03D10020A74B5B6912
:1018100098600020F0E72DE9F04106460F4690461B
:101820001D460024F5B9A1498868FFF7E2FF9F48EB
:1018300084680DE02078B04209D16078B84206D1C2
:10184000A078404503D1E078A84200D102E0A46826
:10185000002CEFD100BF9548007F18B193498868EC
:10186000FFF741FF012D1ED190494868FFF7C1FFE6
:101870008E4844680DE02078B04209D16078B842C3
:1018800006D1A078404503D1E078A84200D102E01B
:10189000A468002CEFD100BF8448407F18B1834971
:1018A0004868FFF720FF2046BDE8F0812DE9F047AA
:1018B0008046894692461D462B465246494640463A
:1018C000FFF7A9FF044614B90420BDE8F08715B955
:1018D0007648806801E075484068064665B97349F6
:1018E0008868FFF786FF71480069A04204D16F48FD
:1018F000006980686D490861012D0CD16B49486809
:10190000FFF777FF6948C068A04204D16748C06804
:1019100080686649C860A64231D145B96349B0685C
:1019200088600846806810B9002088610861012D30
:1019300008D15E49B06848600846406810B9002088
:101940004861C860002020706070A070E070606026
:1019500056480068A060554804602DB9007F18B152
:1019600052498868FFF7BFFE012D06D14F48407FDE
:1019700018B14E494868FFF7B6FE0020A5E7374684
:10198000B66833E0A6422FD135B948488069A042F5
:101990000AD14648876107E0012D05D143484069D7
:1019A000A04201D141484761A068B8603F48006843
:1019B000A0603E480460002020706070A070E0705D
:1019C000606035B93948007F18B138498868FFF739
:1019D0008AFE012D06D13548407F18B13349486849
:1019E000FFF781FE002070E73746B668002EC9D1A8
:1019F00035B92E48007F18B12C498868FFF773FE6F
:101A0000012D06D12948407F18B128494868FFF7C1
:101A10006AFE042059E738B5044608E0E0780090F3
:101A2000A3786278217822A005F0CEFDA468002C6E
:101A3000F4D138BD2DE9F04104460D462CB9002003
:101A40001A4908778868FFF7D4FE012C05D10120D8
:101A5000164908778868FFF746FE2DB9002013491C
:101A600048774868FFF7C5FE012D05D101200F49D1
:101A700048774868FFF737FE0C48807F48B90B4825
:101A8000006906780948006947780848006990F8B5
:101A900002800648807F012818D10448C068067873
:101AA00002480DE05000002048290020C82A0020EC
:101AB00025642025642025642025640A0000000098
:101AC000C0684778FE48C06890F80280FD4B1A1F36
:101AD000FD49502000F0B3FFFA4B1A1FFA49304677
:101AE00000F0A0FFF74B143B1A1F191D384600F0F9
:101AF00099FFF44B143B1A1F191D404600F09FFF3D
:101B00000020BDE8F08170B5ED48807FB8B9EC48A1
:101B1000006908B9012070BDE94800698068E8499A
:101B20000861084600690678084600694478084656
:101B3000006985780846006908B90120EBE7E048AC
:101B4000807F012817D1DE48C06808B90120E2E78C
:101B5000DB48C0688068DA49C8600846C068067813
:101B60000846C06844780846C06885780846C0685A
:101B700008B90120CFE7D34B1A1FD349304600F0F4
:101B800051FFD04B143B1A1F191D204600F04AFF8D
:101B9000CC4B143B1A1F191D284600F050FF0020A3
:101BA000B9E770B504460D46C548807F30B9C448D2
:101BB0000069294642682046904770BDC048807F32
:101BC000012806D1BE48C068294642682046904791
:101BD000F3E70520F1E70246002070472DE9F041C8
:101BE00080460E4617461C4623463A463146404636
:101BF000FFF711FE054615B90420BDE8F081C4B910
:101C0000AF480561807F78BBAE4B1A1FAE49404696
:101C100000F008FFAB4B143B1A1F191D304600F0B3
:101C200001FFA84B143B1A1F191D384600F007FF8F
:101C30001AE0012C18D1A248C560807F012813D179
:101C4000A04B1A1FA049404600F0ECFE9D4B143BF0
:101C50001A1F191D304600F0E5FE9A4B143B1A1F5F
:101C6000191D384600F0EBFE0020C6E79448807F3F
:101C700070472DE9F041074667B900209049887701
:101C800008460069047808460069457808460069F6
:101C9000867811E0012F0CD1012089498877084608
:101CA000C06804780846C06845780846C0688678E9
:101CB00002E00520BDE8F081824B1A1F82492046D0
:101CC00000F0B0FE7F4B143B1A1F191D284600F090
:101CD000A9FE7C4B143B1A1F191D304600F0AFFEC5
:101CE0000020E7E700B5FFF7C1FF10B974480069AD
:101CF00000BDFFF7BBFF012802D17148C068F7E7BC
:101D000000BFF5E72DE9F04F91B00446894640F257
:101D10004C41E068884250D9E068B0F5FA6F4CD287
:101D20006A48006808F0EAFBCDE90E01E06808F0B7
:101D300085F88246664A674B08F0D0F80022664B69
:101D4000CDE9000107F0F2FD0546FFF7BFFA0746AF
:101D5000624A634B08F0C2F8CDE90401206808F03C
:101D60006DF8074600225F4B08F0B8F805460022E0
:101D70005D4B07F097FECDE90201DDE9042308F091
:101D8000D3FA5A4A5A4BCDE9060107F0CFFD594A1A
:101D9000594BCDE9080108F0C7FA4FF03332574BE1
:101DA000CDE90A0108F0C0FACDE90C01DDE90E2306
:101DB00008F0BAFAC9E9000146E0E068B0F5FA6F48
:101DC0003ED34248006808F099FB82468B46E068A3
:101DD00008F034F805464A4A4A4B08F07FF8CDE946
:101DE0000601206808F02AF8054600223D4B08F05D
:101DF00075F8074600223C4B07F054FECDE904017C
:101E0000DDE9062308F090FA3F4A404BCDE908018E
:101E100008F08AFA374A384BCDE90A0108F084FA0B
:101E20004FF03332354BCDE90C0108F07DFA5246C4
:101E30005B46CDE90E0108F077FAC9E9000103E03D
:101E4000062011B0BDE8F08F0020FAE72DE9F04F31
:101E500091B00446894600222D4BD9E9005128460D
:101E600008F03AF97ED240F24C41E06888427ED9CF
:101E7000E068B0F5FA6F7AD21448006808F03EFBCB
:101E8000CDE90E01E06807F0D9FF8246104A114BF8
:101E900008F024F8074600220F4B07F047FDCDE974
:101EA0000001FFF713FA05460C4A0D4B08F016F82F
:101EB000CDE90401206807F0C1FF0746002229E0B0
:101EC000C82A00209C01214280812142200000205C
:101ED000569FABADD8DF25C00053C640696FF08573
:101EE000C954EB3F0000F83F0088C340F4FDD478AC
:101EF000E92608409A9999999999C93F3333D33F74
:101F00002D431CEBE2363A3F5DDC4603784B104034
:101F100000805B40DD4B07F0E1FF05460022DC4B13
:101F200007F0C0FDCDE90201DDE9042308F0FCF96A
:101F3000D84AD94BCDE9060107F0F8FCD74AD84B6F
:101F4000CDE9080108F0F0F94FF03332D54BCDE977
:101F50000A0108F0E9F9CDE90C01DDE90E2308F0EA
:101F6000E3F901E04AE002E0C9E9000192E0E0683B
:101F7000B0F5FA6F3ED3CC48006808F0BFFA82464D
:101F80008B46E06807F05AFF0546C84AC84B07F081
:101F9000A5FFCDE90601206807F050FF07460022A3
:101FA000BA4B07F09BFF05460022B94B07F07AFDBC
:101FB000CDE90401DDE9062308F0B6F9BD4ABE4BC0
:101FC000CDE9080108F0B0F9B44AB54BCDE90A01F2
:101FD00008F0AAF94FF03332B24BCDE90C0108F00A
:101FE000A3F952465B46CDE90E0108F09DF9C9E917
:101FF00000014FE0072011B0BDE8F08FE068B0F5B8
:10200000FA6F45D2A848006808F078FACDE90E01C9
:10201000206807F013FF054600229C4B07F05EFF87
:10202000074600229A4B07F03DFDA44AA44BCDE998
:10203000020107F053FFA34AA34BCDE9040107F0C7
:1020400075FC824607F0E6FBA04AA14BCDE90601EC
:1020500007F044FFCDE90A01206807F0EFFE0546CE
:1020600000228A4B07F03AFF07460022884B07F010
:1020700019FDCDE90801DDE90A2308F055F9CDE99C
:102080000C01DDE90E2308F04FF9C9E9000101E078
:102090000720B0E70020AEE72DE9F04F91B00446ED
:1020A000894640F24C41E068884250D9E068B0F57A
:1020B000FA6F4CD27C48006808F020FACDE90E0196
:1020C000E06807F0BBFE8246824A834B07F006FFBA
:1020D0000022824BCDE9000107F028FC0546FFF7FE
:1020E000F5F807467E4A7F4B07F0F8FECDE904017C
:1020F000206807F0A3FE07460022644B07F0EEFEBF
:1021000005460022624B07F0CDFCCDE90201DDE976
:10211000042308F009F95F4A5F4BCDE9060107F097
:1021200005FC5E4A5E4BCDE9080108F0FDF84FF072
:1021300033325C4BCDE90A0108F0F6F8CDE90C0129
:10214000DDE90E2308F0F0F8C9E9000146E0E06897
:10215000B0F5FA6F3ED35448006808F0CFF98246D4
:102160008B46E06807F06AFE0546504A504B07F080
:10217000B5FECDE90601206807F060FE05460022A5
:10218000424B07F0ABFE07460022414B07F08AFCAA
:10219000CDE90401DDE9062308F0C6F8454A464BBF
:1021A000CDE9080108F0C0F83C4A3D4BCDE90A01F1
:1021B00008F0BAF84FF033323A4BCDE90C0108F091
:1021C000B3F852465B46CDE90E0108F0ADF8C9E917
:1021D000000103E0062011B0BDE8F08F0020FAE70F
:1021E0002DE9F04F8FB004468946E068B0F5FA6FEC
:1021F00045D22D48006808F081F9CDE90C0120682E
:1022000007F01CFE07460022204B07F067FE05463C
:1022100000221F4B07F046FC284A294BCDE900015C
:1022200007F05CFE274A284BCDE9020107F07EFB50
:10223000CDE9040107F0EEFA8246244A244B07F068
:102240004DFECDE90801206807F0F8FD07460022A1
:102250000E4B07F043FE054600220D4B07F022FC13
:10226000CDE90601DDE9082308F05EF8CDE90A01B1
:10227000DDE90C2308F058F8C9E9000103E0072064
:102280000FB0BDE8F08F0020FAE700000000F83F33
:102290000088C340F4FDD478E92608409A999999BA
:1022A0009999C93F3333D33F200000202D431CEBC5
:1022B000E2363A3F5DDC4603784B1040B1A4DC7D4A
:1022C0008E8F763FF31FD26F5F07E03F5839B4C857
:1022D000763E1240569FABADD8DF25C00053C640B6
:1022E000696FF085C954EB3F7FB505460C46012167
:1022F000022001F042FAADF80850ADF80440002089
:10230000ADF80A00ADF8060001A92A4801F064FD05
:1023100001221146274802F0D6F81D208DF8000052
:1023200000208DF8010003208DF8020001208DF8B7
:102330000300684600F08FFE01211E4802F0A8F855
:102340007FBD7FB505460C460121084601F015FA10
:10235000ADF80850ADF804400020ADF80A00ADF823
:10236000060001A94FF0804001F036FD0122114620
:10237000900702F0A8F81C208DF8000000208DF8CE
:10238000010003208DF8020001208DF8030068464B
:1023900000F061FE0121880702F07AF87FBD10B5D8
:1023A0000121044802F03DFB18B10121014802F06F
:1023B00049FB10BD0004004008B501210C2001F0CC
:1023C000CFF94FF4C840ADF8000010208DF803009D
:1023D00003208DF8020069462C4800F005FF4FF4F9
:1023E000C8412A4800F0AFFF0121082001F0B8F9E8
:1023F0004FF40040ADF8000028208DF80300694636
:10240000224800F0F1FE00202149086008BD70B5A7
:10241000054600201E490860072414E00A2000F049
:10242000F3FC45FA04F000F001001949091D0860A9
:1024300001201849C1F8B4010A2000F0E5FC002091
:1024400013490860641E002CE8DA70BD70B50446BC
:10245000254600202870072615E001200C49086059
:102460000A2000F0D1FC00200949086028780849BA
:102470007839096801F00101B140084328700A2049
:1024800000F0C2FC761E002EE7DA70BD000C0140A1
:10249000B48121420080214208B501210C2001F0C5
:1024A0005FF94FF48850ADF8000010208DF803005C
:1024B00003208DF802006946AE4800F095FE4FF407
:1024C0008851AC4800F03FFF0420ADF800004820E0
:1024D0008DF803006946A74800F086FEFFF76CFF01
:1024E00008BD38B5002000900120A34908600020F5
:1024F000A249C1F8A8013020FFF789FF01209E49B9
:102500000860002008609E4908708020FFF77FFF68
:10251000002404E09B49085DFFF779FF641C112C3F
:10252000F8DB01209449086000209449C1F8A80113
:102530004020FFF76CFF002411E06846FFF786FF9C
:102540009048005D9DF80010884202D001208C491F
:1025500008708B48007808B100BFFEE7641C112C9E
:10256000EBDB8748007848B90120834908600020E8
:102570008249C1F8A8011820FFF749FF38BDF8B516
:10258000054600200090002600240FE0002045F8BA
:102590002400002105F1100040F82410002045F827
:1025A000240005F1100040F82410641C042CEDDB1D
:1025B00004E000F058F9012000F051FC6E48A0380A
:1025C00000680028F5D101206B49086000206B49A4
:1025D000C1F8A80104F09CFF06466820FFF717FF2A
:1025E00000244CE06846FFF731FF55F824009DF8C1
:1025F000001000EB014045F824006846FFF726FF75
:1026000055F824009DF8001000EB012045F8240047
:102610006846FFF71BFF55F824009DF8001008449A
:1026200045F824006846FFF711FF05F1100050F847
:1026300024009DF8001000EB014105F1100040F866
:1026400024106846FFF702FF05F1100050F824003F
:102650009DF8001000EB012105F1100040F8241056
:102660006846FFF7F3FE05F1100050F824009DF8CE
:102670000010014405F1100040F82410641C042CE3
:10268000B0DB304604F048FFF8BD2DE9F843804642
:102690004FF0000900200090002404F039FF81462B
:1026A000FFF71FFF484604F037FF0AE004F030FF51
:1026B000814600F0D8F8484604F02EFF0A2000F0CA
:1026C000A3FB2D48A03800680028EFD104F020FFBC
:1026D000814643E001202849086000202749C1F8CD
:1026E000A8016820FFF793FE002533E000260027AD
:1026F0006846FFF7ABFE9DF8000006EB0046684613
:10270000FFF7A4FE9DF8000006EB00266846FFF7E1
:102710009DFE9DF8000006446846FFF797FE9DF871
:10272000000007EB00476846FFF790FE9DF80000A9
:1027300007EB00276846FFF789FE9DF80000074475
:1027400008EB441040F8256008EB4410103040F8C6
:1027500025706D1C042DC9DB601CC4B20648A0386E
:10276000006808B9102CB5DB484604F0D5FE2046B9
:10277000BDE8F883000C0140A8812142008021427D
:1027800051000020F4A6000808B50121082000F03F
:10279000E7FF6820ADF8000010208DF8030003204B
:1027A0008DF802006946404800F01EFD68213E4851
:1027B00000F0C9FD0121052000F0D2FF01213B48B6
:1027C00000F0E3FD4FF40040ADF8000010208DF85C
:1027D000030003208DF802006946354800F004FD2F
:1027E0004FF40041324800F0AEFD0121092000F015
:1027F000B7FF01212D4800F0C8FD1020ADF8000002
:1028000048208DF803006946274800F0EDFC0020C1
:102810002849086001202849C1F88C0108BD08B585
:102820000121112000F09CFF012002F01AF9002084
:1028300000F003FF002002F07AF94FF46040ADF899
:10284000000002208DF8020048208DF80300694640
:102850001A4800F0C9FC002002F003F9002000F043
:10286000ECFE08BD704700B5012015490860FFF770
:10287000F9FF00201349C1F8BC0100BD12E000249B
:1028800005E0042000F0EBFAFFF7EDFF641C142CC8
:10289000F7D34FF4C87000F0E2FA0B480068401C10
:1028A00009490860EBE70000000C0140000230001D
:1028B000000801409881214200802142001001401F
:1028C000BC012142000021425400002008B5012132
:1028D0000C2000F045FFCE20ADF8000010208DF850
:1028E000030003208DF802006946754800F07CFC67
:1028F000CE21734800F027FD0120ADF80000102024
:102900008DF8030003208DF8020069466D4800F041
:102910006BFC01216B4800F014FD0821684800F0B1
:1029200010FD08BD2DE9F0470746884614461D46B0
:10293000DDF820A04FF0000900BF49EA070048EA8F
:1029400000290120206000202060012000F05CFAB6
:10295000002028600F2613E00A2000F055FA29FA1B
:1029600006F000F00100CAF800000A2000F04CFA5E
:10297000012028600A2000F047FA00202860761E17
:10298000002EE9DA0A2000F03FFA01202060BDE8BD
:10299000F0872DE9F04105460E46002700BF47EAC3
:1029A000050046EA00270120474908600020474902
:1029B000C1F88001012000F027FA00204449086096
:1029C0000F2417E00A2000F01FFA27FA04F000F0A5
:1029D00001003F49091D08600A2000F015FA012096
:1029E0003C49C1F898010A2000F00EFA002038494D
:1029F0000860641E002CE5DA0A2000F005FA0120C8
:102A000031490860BDE8F08110B504462146012037
:102A1000FFF7BFFF10BD10B5044621460220FFF7A7
:102A2000B8FF10BDF8B504460D4616461F4633469E
:102A30002A46214601200097FFF774FFF8BDF8B53C
:102A400004460D4616461F4633462A4621460220B6
:102A50000097FFF767FFF8BDF8B504460D46164628
:102A60001F4633462A46214611200097FFF75AFF9A
:102A7000F8BDF8B504460D4616461F4633462A46AD
:102A8000214612200097FFF74DFFF8BDF8B5074625
:102A90000C4615461E462B46224600213320009642
:102AA000FFF740FFF8BDF8B507460C4615461E4631
:102AB0002B462246002123200096FFF733FFF8BD66
:102AC00000080140000C0140808121420080214229
:102AD000980121420000214208B50121082000F0A0
:102AE0003FFE40F28230ADF8000010208DF8030068
:102AF00003208DF802006946344800F075FB40F26F
:102B00008231324800F01DFC00203149086001206C
:102B10003049C1F89C0100202D49091D08602D494C
:102B2000C1F8840108BD70B5054601202849086038
:102B300000202849C1F8A40101202549091D086089
:102B400000F062F9002022490860091D08600F2486
:102B500015E0012000F058F945FA04F000F00100FA
:102B60001B491C39086000201A49C1F89C0101204A
:102B700000F04AF901201649091F0860641E002C64
:102B8000E7DA01201249091F08601249C1F8A401BF
:102B90000F49086000F038F970BD10B50446042CE8
:102BA00005DA44F45040FFF7BEFF012010BD0020BD
:102BB000FCE710B50446B4F5805F05DA44F48040C4
:102BC000FFF7B1FF012010BD0020FCE7000C014021
:102BD000A08121420080214208B50121042000F09B
:102BE000BFFD1020ADF80000ADF8000003208DF807
:102BF00002006946414800F0F7FA012040490860A8
:102C000008BD00B591B00121084600F09CFD0121EE
:102C10004FF4017000F0A4FD2020ADF8400000202A
:102C20008DF8430010A9354800F0DEFA354802F06F
:102C3000FDF93548009035480190002002900120B0
:102C400003900020049005904FF48070069080005F
:102C50000790202008900002099000200A90694601
:102C6000284802F085FA0121264802F0ACFA00203B
:102C70000B908DF8300001208DF831004FF460206A
:102C80000D9000200E9001208DF83C000BA91E48ED
:102C90004C3801F0CAFF4FF4404000F0C5FC05235A
:102CA0000122194618484C3802F057F801211648FD
:102CB0004C3801F0F1FF012113484C3801F0E1FFDD
:102CC00011484C3801F0FFFF00BF0F484C3801F0AD
:102CD000FFFF0028F9D10C484C3802F003F800BF80
:102CE00009484C3802F003F80028F9D101210648C0
:102CF0004C3802F006F811B000BD00000008014099
:102D000090012142080002404C240140580000205C
:102D100008B50121042000F023FD0120ADF80000DA
:102D200028208DF803006946154800F05DFA08BDBB
:102D300010B5044614B101201249087011480078FA
:102D400098B101210E4800F0E2FA01280DD10A20C5
:102D500000F085F800200B4908700121084800F0B8
:102D6000D6FA012809D1042010BD0121044800F041
:102D7000CEFA10B90120034908700020F4E70000E2
:102D8000000801405A00002010B502F00DFC10BDF3
:102D900010B502F04EFC10BD10B50446204604F0FC
:102DA00087FA10BD10B53E480078012805D102F021
:102DB000A8FB02F0ECFC02F0BFFB10BD10B56FF0F9
:102DC000040000F092F9374800683749B0FBF1F091
:102DD00036490870334800683349B0FBF1F441F2DA
:102DE000883044430520324908804FF0E0200069D4
:102DF00040F002004FF0E02108610846446100699C
:102E000040F00100086110BD2DE9F047074600269B
:102E10004FF0E020D0F814902448007807FB00F829
:102E200000BFFFF7B1FF4FF0E020856911E04FF0E0
:102E3000E0208469AC420CD0AC4202D2281B06448C
:102E400003E0A9EB0400284406442546464500D388
:102E500000E0ECE700BFFFF79BFFBDE8F08770B52F
:102E600004460F480078A0B11248007888B910488D
:102E70000088844206DB0E48008894FBF0F5284663
:102E8000FFF78AFF0A48008894FBF0F100FB11402D
:102E900084B24FF47A7104FB01F0FFF7B5FF70BD07
:102EA000A20000200000002000127A005C00002038
:102EB0005E00002095000020014600BF704700BF63
:102EC0004E4A128802F04002002AF9D0C2B24B4B9F
:102ED0001B1D1A80704710B586B00446012144F2CC
:102EE000040000F03DFC4FF40070ADF81400032026
:102EF0008DF8160018208DF8170005A9404800F03D
:102F000073F94FF48060ADF8140004208DF81700B9
:102F100005A93B4800F068F925208DF80000032042
:102F20008DF801008DF8020001208DF8030068463D
:102F300000F091F801944FF48050ADF808000020A3
:102F4000ADF80A004FF48060ADF80C000020ADF839
:102F500010000C20ADF80E0001A9284800F0A7FCD5
:102F6000012240F22551254800F039FD0121234876
:102F700000F029FD06B010BD10B502F0C2FA40F213
:102F800025511E4800F010FE10B31C4800F08CFDC7
:102F9000C4B21C48008800F40040C8B91948008831
:102FA00000F4804060B10A2C03D00020154908804D
:102FB00020E01448008840F400401249088019E0DD
:102FC0000D2C06D10F48008840F480400D49088040
:102FD00010E00C480088C0F30D000B490C54094860
:102FE0000088401C0749088008460088C72801DD82
:102FF0000020088002F0A0FA10BD00000038014057
:103000000008014064000020E82A002009488047A9
:1030100009480047FEE7FEE7FEE7FEE7FEE7FEE7BA
:10302000FEE7FEE7FEE7FEE704480549054A064BD2
:10303000704700005B0D00083101000808370020D0
:10304000083D00200839002008390020314901439B
:10305000314A1160704770B5002100230F22C478F7
:1030600004B32D4C246804F4E064C4F5E064210A40
:10307000C1F10403CA40447804FA03F1847814408F
:1030800021430901254C0678A155047804F01F0559
:103090000124AC4005786D11AD0005F1E025C5F8BF
:1030A000004109E0047804F01F050124AC401C4DE8
:1030B0000678761145F8264070BD1A4A0A40024348
:1030C000154B1B1F1A60704739B1134A121D126845
:1030D0000243114B1B1D1A6006E00F4A121D1268B5
:1030E00082430D4B1B1D1A607047042808D14FF016
:1030F000E021096941F004014FF0E022116107E08D
:103100004FF0E021096921F004014FF0E022116144
:10311000704700000000FA050CED00E000E400E05C
:1031200080E100E080FFFF1F10B50446CC488442D8
:1031300008D10121042000F02DFB0021042000F023
:1031400029FB46E0C748844208D10121082000F04D
:1031500021FB0021082000F01DFB3AE0C248844218
:1031600008D10121102000F015FB0021102000F0F3
:1031700011FB2EE0BD48844208D10121202000F03F
:1031800009FB0021202000F005FB22E0B848844222
:1031900008D10121402000F0FDFA0021402000F07C
:1031A000F9FA16E0B348844208D10121802000F0EA
:1031B000F1FA0021802000F0EDFA0AE0AE488442E6
:1031C00007D10121801500F0E5FA0021A01500F0DB
:1031D000E1FA10BD10B50121084600F0DBFA00212C
:1031E000012000F0D7FA10BD2DE9F041024600257C
:1031F0000026002000230024002791F803C00CF0D3
:103200000F0591F803C00CF0100CBCF1000F03D0B7
:1032100091F802C04CEA050591F800C0BCF1000F1E
:1032200031D0146800202BE04FF0010C0CFA00F3B1
:10323000B1F800C00CEA03069E4220D183004FF093
:103240000F0C0CFA03F7BC4305FA03FC4CEA040428
:1032500091F803C0BCF1280F06D14FF0010C0CFA15
:1032600000FCC2F814C00AE091F803C0BCF1480F9A
:1032700005D14FF0010C0CFA00FCC2F810C0401C44
:103280000828D1D31460B1F800C0BCF1FF0F34DDC1
:10329000546800202EE000F1080C4FF0010808FAF5
:1032A0000CF3B1F800C00CEA03069E4221D1830062
:1032B0004FF00F0C0CFA03F7BC4305FA03FC4CEA81
:1032C000040491F803C0BCF1280F05D100F1080CEB
:1032D00008FA0CF8C2F8148091F803C0BCF1480F4A
:1032E00007D100F1080C4FF0010808FA0CF8C2F8F9
:1032F0001080401C0828CED35460BDE8F0814FF602
:10330000FF710180022181700421C1707047024663
:10331000002093680B400BB1012000E000207047B3
:103320000146886880B2704702460020D3680B408F
:103330000BB1012000E0002070470146C86880B250
:10334000704701617047416170470AB1016100E057
:1033500041617047C16070474FF480320A43826117
:103360008161826182698269704702460020434B15
:1033700018684FF68073184040EA021008433F4B2C
:10338000186070473E49C8617047F0B50A4600238F
:1033900000240021002500F00046B6F1004F02D1C4
:1033A000364EF16901E0354E7168C0F3034583B2D2
:1033B00000F44016B6F5401F08D121F070612F4E81
:1033C000766826F070662D4F7E6012E000F480165D
:1033D000B6F5801F06D1032606FA05F4A14341F095
:1033E000706106E0460D360103FA06F6B14341F07E
:1033F000706122B1460D360103FA06F6314300F042
:103400000046B6F1004F02D11C4EF16101E01B4EA7
:103410007160F0BD30B500228B071C0F0F2303FA3B
:1034200004F2164B08338C1053F824309343134C9A
:1034300008348D1044F8253023468C1053F824307E
:103440008C07240F00FA04F423430C4C08348D102D
:1034500044F8253030BD0A49DC310860704700006F
:1034600000080140000C0140001001400014014020
:1034700000180140001C01400020014000000140F4
:1034800000002042DF48006840F00100DD4908608C
:1034900008464068DC490840DA4948600846006848
:1034A000DA490840D74908600846006820F48020BF
:1034B00008600846406820F4FE0048604FF41F0092
:1034C00088607047CF49096821F48031CD4A116086
:1034D0001146096821F480211160B0F5803F03D0C6
:1034E000B0F5802F0ED106E0C649096841F480315D
:1034F000C44A116007E0C349096841F4A021C14AE8
:10350000116000E000BF00BF704710B50146002207
:10351000002300204A11012A02D1BA4C236806E098
:10352000022A02D1B74C236A01E0B64C636A01F06B
:103530001F02012494401C400CB1012000E0002037
:1035400010BD38B5002000900024002500BF3120B8
:10355000FFF7DBFF05460098401C00900098B0F58F
:10356000A06F01D0002DF2D03120FFF7CEFF08B1BF
:10357000012400E00024204638BD01460020A14A75
:10358000106820F0F80040EAC10010607047A049C0
:1035900008607047024600209A4B586820F47C105F
:1035A00042EA01031843974B5860704798490866F0
:1035B000704701460020934A506820F003000843FA
:1035C000506070478F48406800F00C00704701461B
:1035D00000208C4A506820F0F0000843506070478B
:1035E00001460020874A506820F4E060084350609C
:1035F000704701460020834A506820F4605040EA3A
:10360000C1005060704729B17E4A527A02437D4B17
:103610005A7204E07B4A527A82437A4B5A7270475C
:103620007B49D8310860704701460020754A5068D0
:1036300020F440400843506070470021714A203216
:103640001170704A82F82010012802D004280AD193
:1036500004E001216B4A2032117005E00521694A1E
:103660002032117000E000BF00BF70476949086058
:1036700070476449096A0143624A116270476549AB
:1036800044390860704730B500210022002400232F
:103690005C4D6D6805F00C0121B1042905D00829A5
:1036A00023D105E05C4D056022E05B4D05601FE025
:1036B000544D6D6805F47012524D6D6805F48034F8
:1036C000022505EB92421CB9544D554305600BE0B1
:1036D0004C4D6D6805F400351DB1504D55430560E6
:1036E00002E04D4D5543056002E04B4D056000BFC3
:1036F00000BF444D6D6805F0F0010909484D6B5C51
:103700000568DD4045603F4D6D6805F4E061090ADC
:10371000434D6B5C4568DD4085603A4D6D6805F44E
:103720006051C90A3E4D6B5C4568DD40C560354D52
:103730006D6805F44041890B3A4D6B5CC568B5FB7B
:10374000F3F5056130BD29B12E4A526902432D4B74
:103750005A6104E02B4A526982432A4B5A617047EE
:1037600029B1284A92690243264B9A6104E0254A0E
:1037700092698243234B9A61704729B1214AD269E9
:103780000243204BDA6104E01E4AD26982431D4B9A
:10379000DA61704729B11B4AD2680243194BDA60DB
:1037A00004E0184AD2688243164BDA60704729B1A8
:1037B000144A12690243134B1A6104E0114A126958
:1037C0008243104B1A6170471249403908607047B4
:1037D0000F49C86470470B49C87170470948406A6F
:1037E00040F0807007494862704701460020054A52
:1037F00092680A400AB1012000E0002070470149A8
:1038000088727047001002400000FFF8FFFFF6FECC
:10381000000042428004424200127A0000093D004A
:10382000660000207600002010B50446FB48844264
:1038300009D101218803FFF7ADFF00214FF480403B
:10384000FFF7A8FF32E0F648844209D1012148047D
:10385000FFF7ADFF00214FF40030FFF7A8FF25E090
:10386000F048844209D101218804FFF7A0FF00211C
:103870004FF48020FFF79BFF18E0EB48844209D10A
:103880000121C804FFF793FF00214FF40020FFF748
:103890008EFF0BE0E548844208D101210805FFF7BF
:1038A00086FF00214FF48010FFF781FF10BD2DE946
:1038B000F04786B005460E460024A24600BFA1464A
:1038C0000027B08900B100BF2F462C8A4CF6FF704C
:1038D0000440F08804432C82AC894EF6F310044077
:1038E000B08831890843718908430443AC81AC8AAC
:1038F0004FF6FF400440B0890443AC8201A8FFF7B3
:10390000C2FEC648874202D1DDF810A001E0DDF812
:103910000CA0A88900F4004040B10AEBCA0000EBFB
:103920000A1031684900B0FBF1F807E00AEBCA0061
:1039300000EB0A1031688900B0FBF1F86420B8FB95
:10394000F0F004012009642101FB1089A88900F42A
:10395000004040B1322000EBC900B0FBF1F000F0B4
:103960000700044308E0322000EB09106421B0FB9B
:10397000F1F000F00F0004432C8106B0BDE8F087A1
:103980004FF41651016000218180C18001810C211A
:10399000418100218181704710B502460020108AC4
:1039A0004FF2FF0318400B884C8823438C88234335
:1039B000CC8823431843108210BD00210180418030
:1039C0008180C180704721B1828942F40052828196
:1039D00004E082894DF6FF731A4082817047F0B58A
:1039E0000346002400260025002040F66A17B9424D
:1039F00000D100BF1846C1F3421401F01F06012791
:103A000007FA06F5012C01D10C3004E0022C01D19B
:103A1000103000E014301AB107682F43076002E04D
:103A20000768AF430760F0BD1AB1838A0B438382F6
:103A300002E0838A8B4383827047028A4FF6F073D9
:103A40001A400282028A0A430282704782894FF238
:103A5000FF731A40828182890A438281704721B1B3
:103A6000828942F00202828104E082894FF6FD736E
:103A70001A4082817047028A4FF6DF731A40028231
:103A8000028A0A430282704721B1028A42F48042CC
:103A9000028204E0028A4BF6FF731A4002827047EA
:103AA000C1F308028280704701468888C0F308008D
:103AB0007047818941F0010181817047028BD2B248
:103AC0000283028B42EA012202837047028B02F4D6
:103AD0007F420283028B0A430283704721B1828AAC
:103AE00042F02002828204E0828A4FF6DF731A409D
:103AF0008282704721B1828A42F01002828204E001
:103B0000828A4FF6EF731A408282704721B1828A0F
:103B100042F00802828204E0828A4FF6F7731A406C
:103B20008282704721B1828942F40042828103E09F
:103B30008289C2F30E028281704721B1828A42F4E7
:103B40000062828204E0828A4FF2FF731A4082820E
:103B50007047828A4FF6FB731A408282828A0A4338
:103B60008282704721B1828A42F00202828204E09E
:103B7000828A4FF6FD731A40828270470246002007
:103B8000B1F5007F00D100BF13880B400BB10120BD
:103B900000E00020704701F40072B2F5007F00D110
:103BA00000BFCA430280704770B50246002400235C
:103BB0000025002040F66A16B14200D100BFC1F3D3
:103BC000421501F01F03012606FA03F3012D02D16D
:103BD0009689334006E0022D02D1168A334001E077
:103BE000968A33400C12012606FA04F416883440F3
:103BF00013B10CB1012000E0002070BD10B500220F
:103C0000002340F66A14A14200D100BF0A12012429
:103C10009440A3B2DC43048010BD00000038014092
:103C20000044004000480040004C0040005000406C
:103C300010B50446FE48844208D10121C014FFF7A4
:103C4000A9FD0021E014FFF7A5FDC4E0B4F1804F09
:103C500008D101210846FFF7AAFD00210120FFF746
:103C6000A6FDB8E0F348844208D101210220FFF705
:103C70009EFD00210220FFF79AFDACE0EE48844251
:103C800008D101210420FFF792FD00210420FFF755
:103C90008EFDA0E0E948844208D101210820FFF709
:103CA00086FD00210820FFF782FD94E0E44884426D
:103CB00008D101211020FFF77AFD00211020FFF725
:103CC00076FD88E0DF48844208D101212020FFF7FB
:103CD0006EFD00212020FFF76AFD7CE0DA48844277
:103CE00008D101214014FFF755FD00216014FFF7B2
:103CF00051FD70E0D548844209D10121C804FFF785
:103D000049FD00214FF40020FFF744FD63E0D04857
:103D1000844209D101210805FFF73CFD00214FF441
:103D20008010FFF737FD56E0CA48844209D10121CF
:103D30004805FFF72FFD00214FF40010FFF72AFD83
:103D400049E0C548844208D101214020FFF72FFDFA
:103D500000214020FFF72BFD3DE0C048844208D100
:103D600001218020FFF723FD00218020FFF71FFDA8
:103D700031E0BB48844208D101218015FFF717FDCF
:103D80000021A015FFF713FD25E0B648844209D1B4
:103D900001210804FFF7FEFC00214FF48030FFF7FB
:103DA000F9FC18E0B048844209D101214804FFF72A
:103DB000F1FC00214FF40030FFF7ECFC0BE0AB48C6
:103DC000844208D101218804FFF7E4FC00214FF46C
:103DD0008020FFF7DFFC10BD00220288944B984240
:103DE0000ED0994B98420BD0B0F1804F08D0914B38
:103DF000984205D0904B984202D0904B984204D103
:103E00004FF68F731A404B881A438D4B984207D058
:103E10008C4B984204D04FF6FF431A40CB881A438C
:103E200002808B8883850B880385814B98420BD059
:103E3000854B984208D08B4B984205D08A4B9842CC
:103E400002D08A4B984201D10B7A038601238382E8
:103E5000704770B5002400220023058C4FF6FE76D3
:103E600035400584028C8388048B4FF68F752C4077
:103E7000B51E2C400D882C43751E2A400D892A43FF
:103E80004D882A436A4DA8420BD06F4DA84208D0F6
:103E9000744DA84205D0744DA84202D0734DA8427B
:103EA00013D14FF6F7752A404D892A434FF6FB751B
:103EB0002A408D882A434FF6FF652B404FF6FF5569
:103EC0002B408D892B43CD892B4383800483CD8860
:103ED0008586028470BD70B5002400220023058C05
:103EE0004FF6EF7635400584028C8388048B48F6C4
:103EF000FF752C404FF6FF452C400D884FF6FF769E
:103F000006EA05252C434FF6DF752A400D8906EA9F
:103F100005152A434D8806EA05152A43444DA84253
:103F200002D0494DA8421DD14FF67F752A404D89D8
:103F30004FF6FF7606EA05152A434FF6BF752A406D
:103F40008D8806EA05152A434FF6FF352B404FF2C0
:103F5000FF752B408D8906EA85052B43CD8906EA3E
:103F600085052B4383800483CD880587028470BD3B
:103F700070B5002400220023058C4FF6FF66354003
:103F80000584028C8388848B4FF68F752C404FF606
:103F9000FC752C400D882C434FF6FF552A400D89A7
:103FA0004FF6FF7606EA05252A434D8806EA0525E1
:103FB0002A431F4DA84202D0234DA8421DD14FF2E3
:103FC000FF752A404D894FF6FF7606EA05252A43FC
:103FD0004FF6FF352A408D8806EA05252A434EF61E
:103FE000FF752B404DF6FF752B408D8906EA0515B0
:103FF0002B43CD8906EA05152B4383808483CD8826
:104000008587028470BD70B5002200230024058CD2
:104010004EF6FF7635400584038C8488828B48F603
:10402000FF752A404FF6FF452A400D8820E000002A
:10403000002C01400004004000080040000C00403B
:10404000001000400014004000340140004C0140CA
:10405000005001400054014000180040001C004086
:104060000020004000400140004401400048014061
:104070004FF6FF7606EA05252A434DF6FF752B40DD
:104080000D8906EA05352B434D8806EA05352B4395
:10409000FA4DA84202D0FA4DA84208D14BF6FF755E
:1040A0002C408D894FF6FF7606EA85152C438480D7
:1040B0008283CD88A0F84050038470BD828B4FF27C
:1040C000FF331A408283828B4FF6FF7303EA01238A
:1040D0001A4382837047F0B50C4615460022002132
:1040E0000026078C4EF6FF7C07EA0C070784828BBC
:1040F000018C4FF6FF7707EA043640F6FF473A4057
:104100004FF6FF7707EA05273A434FF6FF7707EAAE
:1041100003373A43D94FB8420ED0D94FB8420BD0EB
:10412000B0F1804F08D0D74FB84205D0D64FB84233
:1041300002D0D64FB84206D14DF6FF77394046F44B
:104140008057394305E047F6FF57394044F480571C
:10415000394382830184F0BD828B4FF6F3731A409A
:104160008283828B0A4382837047F0B50C461546E2
:10417000002200210026078C4FF6FF6C07EA0C078F
:104180000784828B018C4FF6FF7707EA04264FF6EF
:104190000C773A404FF6FF7707EA03172F433A436D
:1041A000B64FB8420ED0B64FB8420BD0B0F1804FE8
:1041B00008D0B44FB84205D0B34FB84202D0B34F85
:1041C000B84206D14FF6FF57394046F4807739435D
:1041D00005E04FF2FF57394044F48077394382833A
:1041E0000184F0BD028B4FF2FF331A400283028B31
:1041F0004FF6FF7303EA01231A4302837047F0B5B9
:104200000C461546002200210026078C4FF6EF7C55
:1042100007EA0C070784028B018C4FF6FF7707EA49
:10422000041640F6FF473A404FF6FF7707EA033798
:104230003A434FF6FF7707EA05273A438F4FB842D4
:104240000ED08F4FB8420BD0B0F1804F08D08D4FB9
:10425000B84205D08C4FB84202D08C4FB84206D13C
:104260004FF6DF77394046F01007394305E04FF647
:104270005F77394044F01007394302830184F0BD71
:10428000028B4FF6F3731A400283028B0A430283B8
:104290007047F0B50C46154600220021068C4FF6FB
:1042A000FE773E400684028B018C4FF60C7632403E
:1042B0007E1C06EA03162E433243704EB0420ED0E7
:1042C0006F4EB0420BD0B0F1804F08D06D4EB0426F
:1042D00005D06D4EB04202D06C4EB04206D14FF6C2
:1042E000FD76314044F00106314305E04FF6F576A6
:1042F000314044F00106314302830184F0BD70B5C2
:1043000005460C465D4885420ED05D4885420BD07F
:10431000B5F1804F08D05B48854205D05A488542A8
:1043200002D05A48854200D100E000BF208850B931
:104330002389A28861882846FFF7ABFFE1882846D9
:10434000FFF79EFF25E0208804280AD12389A28850
:1043500061882846FFF753FFE1882846FFF742FFB0
:1043600017E0208808280AD12389A2886188284676
:10437000FFF7FBFEE1882846FFF7EEFE09E0238900
:10438000A28861882846FFF7A6FEE1882846FFF745
:1043900095FE70BD2DE9F04105460C46002601272B
:1043A000608808B9022600E00026A088012801D113
:1043B000022700E001272088A0B92389A28861880C
:1043C0002846FFF766FFE1882846FFF759FF238953
:1043D0003A4631462846FFF712FFE1882846FFF7A4
:1043E00001FF13E02389A28861882846FFF707FFB1
:1043F000E1882846FFF7F6FE23893A4631462846EB
:10440000FFF747FFE1882846FFF73AFFBDE8F08154
:104410000A884B881A438B881A43CB881A430B8926
:104420001A434B891A438B891A43A0F844207047DA
:104430004FF6FF71818000210180C18041800172AF
:1044400070470021018041808180C18001814181CC
:104450008181C181704700210180418001218180DB
:104460000021C1800181704700210180418081804D
:10447000C18001814181818170470000002C014091
:10448000003401400004004000080040000C0040DF
:1044900021B1028842F00102028004E002884FF656
:1044A000FE731A400280704731B1B0F8442042F4E4
:1044B0000042A0F8442005E0B0F84420C2F30E0208
:1044C000A0F8442070471AB183890B43838102E02E
:1044D00083898B43838170478182704741EA02035D
:1044E000A0F8483070471AB183890B43838102E0FA
:1044F00083898B438381704701894FF6F87211409D
:10450000018170470A46002101894FF68F731940D7
:1045100011430181704730B504460D4629462046B7
:10452000FFF7F0FF208940F00700208130BD2DE922
:10453000F04104460D4616461F46602D06D13B4607
:10454000012231462046FFF75AFE05E03B46012294
:1045500031462046FFF79DFE29462046FFF7D2FF51
:10456000208940F007002081BDE8F08130B50C467D
:1045700000210189C9B24FF6FF7505EA03251543ED
:1045800025432943018130BD2DE9F04105460E4602
:1045900017469846002443463A4631462846FFF7D8
:1045A000E5FF2C894FF6F870044044F007044FF6FD
:1045B0008F70044044F070042C81BDE8F081F0B5A8
:1045C00004460D4616461F463B46324629462046BF
:1045D000FFF7CCFF208940F480402081F0BD0185A9
:1045E000828270470A46002101884FF68F73194076
:1045F000114301807047F0B50C4615461E46002158
:10460000002200230189028B038C4FF6F877394092
:1046100021434FF6FC473A4040F201173A434FF628
:10462000DD773B404FF6FF7707EA06172F433B4302
:10463000018102830384F0BD0A460021018B4FF6FD
:104640008F7319401143018370470A460021018B83
:1046500048F6FF7319404FF6FF7303EA022319432C
:10466000018370470A460021818B4FF68F731940F2
:104670001143818370470A460021818B48F6FF73FE
:1046800019404FF6FF7303EA0223194381837047F1
:1046900021B1028842F08002028004E002884FF6D5
:1046A0007F731A400280704721B1828842F0040271
:1046B000828004E082884FF6FB731A408280704744
:1046C00021B1828842F00802828004E082884FF69D
:1046D000F7731A408280704721B1828842F001024C
:1046E000828004E082884FF6FE731A408280704711
:1046F0000A460021018B4FF6F773194011430183DD
:1047000070470A460021018B4FF2FF7319404FF6A4
:10471000FF7303EA02231943018370470A4600210D
:10472000818B4FF6F77319401143818370470A4616
:104730000021818B4FF2FF7319404FF6FF7303EA9C
:1047400002231943818370470A460021018B4FF6EB
:10475000FB7319401143018370470A460021018B06
:104760004FF6FF3319404FF6FF7303EA0223194354
:10477000018370470A460021818B4FF6FB73194075
:104780001143818370470A460021818B4FF6FF3326
:1047900019404FF6FF7303EA0223194381837047E0
:1047A0000A460021018B4FF67F73194011430183A4
:1047B00070470A460021018BC1F30E014FF6FF73CB
:1047C00003EA02231943018370470A460021818BC3
:1047D0004FF67F7319401143818370470A460021C9
:1047E000818BC1F30E014FF6FF7303EA02231943D5
:1047F000818370470A460021018C4FF6FD731940F2
:104800001143018470470A460021018C4FF6F7736B
:1048100019401143018470470A460021018C4FF66C
:10482000DF7319404FF6FF7303EA02131943018443
:1048300070470A460021018C4FF67F7319404FF6EE
:10484000FF7303EA02131943018470470A460021EB
:10485000018C4FF6FF5319404FF6FF7303EA022312
:104860001943018470470A460021018C4FF2FF73FF
:1048700019404FF6FF7303EA02231943018470477E
:104880000A460021018C4DF6FF7319404FF6FF7365
:1048900003EA023319430184704730B50023012431
:1048A0008C40A3B2048C9C430484048C02FA01F56E
:1048B000ADB22C43048430BD30B5002304248C40B9
:1048C000A3B2048C9C430484048C02FA01F5ADB2BB
:1048D0002C43048430BD70B50346002000241846E4
:1048E000183001258D40ACB21D8CA5431D8409B143
:1048F000082909D100EB6100056825F07005056005
:104900000568154305600EE00D1FC5F34E052844EC
:10491000056825F4E045056005684FF6FF7606EA70
:1049200002263543056070BD21B1028842F00202C3
:10493000028004E002884FF6FD731A40028070473F
:1049400021B1028842F00402028004E002884FF69E
:10495000FB731A400280704721B1828842F08002C6
:10496000828004E082884FF67F731A40828070470D
:1049700002884FF6F7731A40028002880A430280C9
:10498000704782884FF68F731A40828082880A436C
:104990008280704702894FF6F8731A4002810289BB
:1049A0000A430281704702894FF67F731A400281E1
:1049B00002890A430281704781847047818570476C
:1049C000818670470187704781877047A0F8401043
:1049D000704702884FF6FF431A40028002880A435C
:1049E000028070470146888E70470146088F7047E5
:1049F0000146888F70470146B1F840007047014674
:104A0000888C70470146088D704702460020138A43
:104A10000B400BB1012000E000207047CA43028226
:104A2000704730B50246002000230024158A05EAAD
:104A30000103958905EA010413B10CB1012000E0DE
:104A4000002030BDCA4302827047000010B501212A
:104A50000807FEF7ACFE00214FF08050FEF7A7FEDE
:104A600010BD2A490862704728490861704701460D
:104A70000020274A106820F0E000084310607047CB
:104A80002249A0310860704710B502460020204B33
:104A9000186820F00300104318601E4B1B6843F099
:104AA00004031C4C2360012901D130BF00E020BF6A
:104AB000184B1B6823F00403164C236010BD1448E8
:104AC000006840F00400124908600846006840F0A1
:104AD000020008600F48006840F004000D490860BB
:104AE00000BF00BF30BF704701460020084A52682F
:104AF0000A400AB1012000E000207047044909681B
:104B000041EA8001024A11607047000000000E4235
:104B10000070004010ED00E010B50120FEF754FEDB
:104B20000020FEF751FE10BD2A4908607047294950
:104B3000091F0860704727498431086070470146A3
:104B40000020254A10884FF67F4210400843224A31
:104B500010807047014600201F4A10884FF680726F
:104B6000104008431C4A1080704708B5002200928C
:104B7000194A2C3A0092009A02440092009A11605D
:104B800008BD08B501460020009013482C3800905D
:104B90000098084400900098008808BD0D489C309B
:104BA0000068C0B270470C480830008840F001002F
:104BB00009490831088070470648A0300068C0B233
:104BC000704705480830008840F00200024908316B
:104BD0000880704704860D422C6C004010B50446D6
:104BE000FA48844208D101214015FEF7D3FD002187
:104BF0006015FEF7CFFD17E0F548844208D101218A
:104C00000015FEF7C7FD00212015FEF7C3FD0BE0E0
:104C1000F048844208D10121C803FEF7BBFD002102
:104C20004FF40040FEF7B6FD10BD30B5024600203F
:104C300000235068E84C20400D790C6844EA0524B4
:104C4000204350609068E54C2040D1E902542C4349
:104C50004D7944EA450420439060D06A20F4700006
:104C60000C7C641EE4B2234340EA0350D06230BDA2
:104C700000210160017141718160C16001210174F5
:104C8000704721B1826842F00102826003E08268CD
:104C900022F001028260704721B1826842F4807282
:104CA000826003E0826822F480728260704710B5EF
:104CB0000023CBB21AB144681C43446002E044684C
:104CC0009C43446010BD816841F0080181607047D9
:104CD000014600208A6802F008020AB1012000E0C3
:104CE00000207047816841F00401816070470146EF
:104CF00000208A6802F004020AB1012000E00020CE
:104D0000704721B1826842F4A002826003E08268A9
:104D100022F4A00282607047014600208A6802F4F3
:104D200080020AB1012000E00020704710B50A4659
:104D300000210023416821F46041531E41EA4331C0
:104D4000416010BD21B1426842F40062426003E05C
:104D5000426822F4006242607047F0B504460D4696
:104D600000200021092D11DDE068A5F10A0606EBFF
:104D70004607072606FA07F18843A5F10A0606EB5F
:104D8000460603FA06F10843E0600CE0206905EBF3
:104D90004507072606FA07F1884305EB450603FA9F
:104DA00006F108432061072A0FDA606B561E06EBF6
:104DB00086071F2606FA07F18843561E06EB86066D
:104DC00005FA06F10843606322E00D2A0FDA206B32
:104DD000D61F06EB86071F2606FA07F18843D61F63
:104DE00006EB860605FA06F10843206310E0E06A48
:104DF000A2F10D0606EB86071F2606FA07F1884387
:104E0000A2F10D0606EB860605FA06F10843E062FC
:104E1000F0BD21B1826842F48012826003E08268B2
:104E200022F48012826070470146C86C80B27047DD
:104E300066484C300068704721B1426842F4806295
:104E4000426003E0426822F480624260704721B110
:104E5000426842F48052426003E0426822F4805289
:104E6000426070470A460021816821F4E041114305
:104E70008160704721B1826842F40042826003E0A1
:104E8000826822F400428260704721B1826842F455
:104E90000212826003E0826822F40212826070478C
:104EA000014600208A6802F400120AB1012000E0E5
:104EB00000207047F0B50446154600200022002669
:104EC000092911DDE068A1F10A0707EB470C072764
:104ED00007FA0CF29043A1F10A0707EB470703FA20
:104EE00007F21043E0600CE0206901EB410C07275A
:104EF00007FA0CF2904301EB410703FA07F2104363
:104F00002061A06BC0F30156EF1C06F1010CA7EB6A
:104F10000C0707EB870C1F2707FA0CF29043EF1CD6
:104F200006F1010CA7EB0C0707EB870701FA07F264
:104F30001043A063F0BD10B50A4600210023816B29
:104F400021F44011531E41EA0351816310BD08B59D
:104F5000002300930090009B0B440093009B1A6079
:104F600008BD08B5024600200090009201F128001B
:104F7000009B184400900098006880B208BD0A4663
:104F800000214168164B194011434160704741624E
:104F9000826270470A460021416821F01F011143D7
:104FA0004160704740B109490831096841F4000186
:104FB000064A0832116007E004490831096821F403
:104FC0000001024A083211607047000000240140CD
:104FD00000280140003C0140FFFEF0FFFDF7F1FF1B
:104FE000FFFD3FFF0246002013680B400BB101207C
:104FF00000E000207047CA430260704770B5024667
:105000000020002300240B125568CEB205EA0604E6
:1050100015681D4015B10CB1012000E0002070BDE5
:1050200000220A12D34303607047000001684FF664
:10503000FE72114001600021016041608160C16029
:105040008D49884208D18C490839496841F00F01DF
:10505000894A083A51608AE087491431884208D168
:1050600085490839496841F0F001834A083A51609E
:105070007DE081492831884208D17F490839496853
:1050800041F470617C4A083A516070E07A493C31E1
:10509000884208D178490839496841F47041764A14
:1050A000083A516063E074495031884208D172492E
:1050B0000839496841F470216F4A083A516056E056
:1050C0006D496431884208D16B490839496841F417
:1050D0007001694A083A516049E06749783188426D
:1050E00008D165490839496841F07061624A083A57
:1050F00051603CE06149884206D1011F096841F0D6
:105100000F01021F116032E05C491431884208D15E
:105110005A49091F096841F0F001584A121F1160ED
:1051200025E056492831884208D15449091F0968A9
:1051300041F47061514A121F116018E04F493C312F
:10514000884208D14D49091F096841F470414B4A12
:10515000121F11600BE049495031884207D147497D
:10516000091F096841F47021444A121F11607047F9
:1051700010B50022026847F6F0739A430C6A8B68F8
:1051800023430C6923434C6923438C692343CC6933
:1051900023434C6A23438C6A23431A430260CB683F
:1051A00043600B6883604B68C36010BD00210160E1
:1051B00041608160C160016141618161C1610162E1
:1051C00041628162704721B1026842F001020260CF
:1051D00004E002684FF6FE731A40026070471AB18D
:1051E00003680B43036002E003688B43036070476E
:1051F000416070470146486880B270470146002010
:10520000002201F080531BB11C4B083B1A6802E0DE
:10521000194B083B1A6802EA01030BB1012000E0B8
:105220000020704700F0805119B11449091F08602F
:1052300002E0114908394860704701460020002209
:1052400001F080531BB10D4B083B1A6802E00A4B7A
:10525000083B1A6802EA01030BB1012000E00020BC
:10526000704700F0805119B10449091F086002E03D
:1052700001490839486070470800024008040240AC
:105280007CB5002514E06946284601F007FF064674
:1052900066B9F84850F8254044B1012C06D0D4E94D
:1052A000020100EB810060640198A064681CC5B233
:1052B0003F2DE8D97CBD002400BF02E0282001F08A
:1052C000F7FFED4800780028F8D0EC48006864212A
:1052D000B0FBF1F0E94908600846006828B90020F1
:1052E000E7490870FF2001F01BFF00BF02F010F932
:1052F0000446E4480068E44908600020E149086089
:10530000204602F009F9E0480068DC490968B0FB72
:10531000F1F0C0F16400DA49087002F0A6F8FFF776
:10532000AFFF142001F0C4FFE0E700B587B0032011
:1053300000218022D54BCDE90132CDE903104FF693
:10534000FE703E23D24A0090AFF2950001F0BFFC00
:1053500006AAD0A13E2001F023FE07B000BD002424
:1053600000BF00BF02F0D4F80446C6480068401CE5
:10537000C4490860204602F0CFF802F075F8F1E762
:1053800000B587B0032000218022C64BCDE9013251
:10539000CDE903104FF6FF703F23C34A0090AFF2F0
:1053A000410001F094FC06AAC0A13F2001F0F8FDE5
:1053B00007B000BD04E0002200F8012B4A1E91B2A4
:1053C0000029F8D1704770B5C821BC48FFF7F2FF3B
:1053D00000230FE0581C85B203EB8300B74901EBB3
:1053E000800405EB850001EB8006002020706660DC
:1053F000581C83B2092BEDD303EB8300AF4901EBBB
:1054000080040020207060600846AD49086070BDCF
:1054100070B54FF47C71AB48FFF7CCFF4FF480714F
:105420009448FFF7C7FF002413E0601CC5B2C4EB2B
:10543000C40000EB4000A34901EB8003C5EBC500AD
:1054400000EB400001EB80065E619FA0D864601C09
:10545000C4B20B2CE9D3C4EBC40000EB4000994963
:1054600001EB80030020586197A0D8640020974981
:10547000086094489649086070BD0021954A1170F3
:10548000002004E00021944A1154411CC8B20828AD
:10549000F8D30021914A1170914A1170914A11601C
:1054A000914A116070470020904908609049087047
:1054B00090490870904908709049087090490860B8
:1054C00070490860704908606C4908606A49087052
:1054D000704710B501F0C4FFFFF7E5FFFFF7CDFF00
:1054E000FFF796FFFFF76FFF00F0ECFE00F0DDFF27
:1054F00001F0D3FAFFF744FFFFF717FF01F0B1FF08
:1055000010BD7E480078012808D179480078FF282E
:1055100004D277480078401C754908707047794973
:105520006C4A1278885C6C49095C764A515C01EBE4
:10553000C0016B4A1170704710B500246F480078A5
:10554000012830D101F0E4FF04466948007820B119
:1055500067480078401E6649087065480078F8B9C9
:1055600064480078E0B9FFF7DAFF42485C490978FF
:1055700050F821005B49086059480078574909787C
:1055800088420DD057480068806B401C5549096817
:1055900088635B480068401C5949086001F0D7FFE8
:1055A000204601F0B9FF10BD10B500245348007823
:1055B000012811D101F0ACFF04464D48007840B9F4
:1055C0004C480078FF2804D24A480078401C4949DA
:1055D0000870204601F0A0FF10BD10B5002401F0B6
:1055E00097FF044642480078F8B942480078E0B98D
:1055F000FFF795FF1F483A49097850F821003949CB
:105600000860374800783549097888420DD0354818
:105610000068806B401C334909688863384800681B
:10562000401C3749086001F08BFF204601F074FFF1
:1056300010BD10B500243148007801286FD101F069
:1056400067FF04462B48007880B12A480078401E46
:10565000284908700846007848B92548007838B9C4
:10566000204601F059FFFFF7B8FF58E054E04FE043
:105670004AE00000C8300020940000208C00002088
:1056800088000020A400002090000020C82C0020EA
:10569000C42E002075432F4F532D49492053746168
:1056A00074000000C82E0020C430002075432F4F26
:1056B000532D49492049646C65000000B02B00203F
:1056C00080000020C83100203F000000B40000200E
:1056D000AC000020990000209A00002097000020D4
:1056E00098000020B0000020A8000020C400002086
:1056F0009500002096000020A3000020A2000020BA
:105700007C00002022A70008204601F005FF06E0EB
:10571000204601F001FF02E0204601F0FDFE10BD31
:1057200010B5EB48007890B9FFF7F9FEE94800782A
:10573000E9490870E948E749097850F82100E84943
:10574000086008460068E749086001F0E8FE10BDFF
:1057500010B50024022001F0ABFD01F0D9FE044693
:105760000020E1490860204601F0D6FE142001F037
:105770009FFD01F0CDFE0446DB480068DB49086070
:105780000120DB490870204601F0C6FE10BD70B54F
:10579000002601F0BAFE01F0BBFE0646D5480068BF
:1057A000401CD4490860304601F0B6FEC848007875
:1057B000012853D1D048007820B1012804D0022814
:1057C00009D103E001250BE0002509E001250120B6
:1057D000C949087004E001250020C749087000BFCE
:1057E00000BF05B970BDC548046833E001F090FE04
:1057F0000646E06A50B3E06A401EE062E06A28BBF9
:1058000094F8300000F0370040B114F8300F00F089
:10581000C800207001206070303C02E0002084F855
:10582000310094F8300000F0080078B93434A078E2
:10583000B34909780843B24908702078B149085C37
:105840006178084314F83419AE4A505464693046FC
:1058500001F062FE94F832003F28C7D100BFC1E7D3
:1058600040F223107047704710B590F8342001F1D2
:105870000B039B5C90F83540A34301F10B04A35448
:1058800023469B5C23B98B7A90F83640A3438B72F6
:1058900010BD2DE9F04F05460F4690469946A87A6F
:1058A00099490E5C05F10B00805D11F800B00BEB1F
:1058B000C60000F0FF0A894850F82A400020203432
:1058C000E0602760207C20EA0800207484F81190B2
:1058D000207C203C00F0080068B994F83600884924
:1058E00009780843864908708648805D94F8351029
:1058F00008438449885529462046FFF7B5FF50469E
:10590000BDE8F08F10B5774A1268D061754A126809
:1059100092F8343000F10B02D25C724B1B6893F8A2
:1059200035301A436F4B1B6893F8344000F10B037A
:105930001A55827A6B4B1B6893F836301A43827281
:10594000684A126892F834106E4A525C654B1B68C4
:1059500093F835309A436B4B5A541A46525C42B90D
:10596000604A126892F83630654A12789A43644B5E
:105970001A7010BD014600228A72002005E0002343
:1059800001F10B021354421CD0B20828F7D3704720
:1059900005E011F8013B00F8013B531E9AB2002AC2
:1059A000F7D170470146002002E0491C421CD0B2EA
:1059B0000A78002AF9D170472DE9F84F05460F46BD
:1059C00090469946DDE90AAB0020009001F0A0FD69
:1059D00000904E480468002C75D0183454F8040C1C
:1059E0004A490860009801F097FD44F8187CA576B4
:1059F000002020766076606144F814BC44F80CAC5A
:105A000044F8108C0C9824F8080C24F8069C00200C
:105A1000E077E810207705F00700E076217F01208D
:105A20008840A077E17E0120884060770020606098
:105A3000E060A0602062A0626062E0622063AFF27A
:105A400078306063183C002606E0002104F1500025
:105A500040F82610701CC6B2002EF6D0204601F089
:105A600053FD204601F0FEFC01F052FD00901B4862
:105A700040F825402148006860610020A0611F486F
:105A8000006810B11D48006884611C48046034340B
:105A9000A0781B49097808431949087020781949EA
:105AA000085C6178084314F83419164A50541848B1
:105AB0000078401C16490870009801F02DFD002068
:105AC000BDE8F88FFFE7009801F026FD4220F7E7D8
:105AD000A20000209800002097000020C83000207D
